{
  "address": "0x316510dA03A5deD1d43B16863370d4b94D4F77B7",
  "_format": "hh-sol-artifact-1",
  "contractName": "BridgeTowerNftUpgradeable",
  "sourceName": "contracts/BridgeTowerNftUpgradeable.sol",
  "abi": [
    {
      "anonymous": false,
      "inputs": [
        {
          "indexed": true,
          "internalType": "address",
          "name": "owner",
          "type": "address"
        },
        {
          "indexed": true,
          "internalType": "address",
          "name": "approved",
          "type": "address"
        },
        {
          "indexed": true,
          "internalType": "uint256",
          "name": "tokenId",
          "type": "uint256"
        }
      ],
      "name": "Approval",
      "type": "event"
    },
    {
      "anonymous": false,
      "inputs": [
        {
          "indexed": true,
          "internalType": "address",
          "name": "owner",
          "type": "address"
        },
        {
          "indexed": true,
          "internalType": "address",
          "name": "operator",
          "type": "address"
        },
        {
          "indexed": false,
          "internalType": "bool",
          "name": "approved",
          "type": "bool"
        }
      ],
      "name": "ApprovalForAll",
      "type": "event"
    },
    {
      "anonymous": false,
      "inputs": [
        {
          "indexed": false,
          "internalType": "uint8",
          "name": "version",
          "type": "uint8"
        }
      ],
      "name": "Initialized",
      "type": "event"
    },
    {
      "anonymous": false,
      "inputs": [
        {
          "indexed": true,
          "internalType": "bytes32",
          "name": "role",
          "type": "bytes32"
        },
        {
          "indexed": true,
          "internalType": "bytes32",
          "name": "previousAdminRole",
          "type": "bytes32"
        },
        {
          "indexed": true,
          "internalType": "bytes32",
          "name": "newAdminRole",
          "type": "bytes32"
        }
      ],
      "name": "RoleAdminChanged",
      "type": "event"
    },
    {
      "anonymous": false,
      "inputs": [
        {
          "indexed": true,
          "internalType": "bytes32",
          "name": "role",
          "type": "bytes32"
        },
        {
          "indexed": true,
          "internalType": "address",
          "name": "account",
          "type": "address"
        },
        {
          "indexed": true,
          "internalType": "address",
          "name": "sender",
          "type": "address"
        }
      ],
      "name": "RoleGranted",
      "type": "event"
    },
    {
      "anonymous": false,
      "inputs": [
        {
          "indexed": true,
          "internalType": "bytes32",
          "name": "role",
          "type": "bytes32"
        },
        {
          "indexed": true,
          "internalType": "address",
          "name": "account",
          "type": "address"
        },
        {
          "indexed": true,
          "internalType": "address",
          "name": "sender",
          "type": "address"
        }
      ],
      "name": "RoleRevoked",
      "type": "event"
    },
    {
      "anonymous": false,
      "inputs": [
        {
          "indexed": true,
          "internalType": "address",
          "name": "from",
          "type": "address"
        },
        {
          "indexed": true,
          "internalType": "address",
          "name": "to",
          "type": "address"
        },
        {
          "indexed": true,
          "internalType": "uint256",
          "name": "tokenId",
          "type": "uint256"
        }
      ],
      "name": "Transfer",
      "type": "event"
    },
    {
      "inputs": [],
      "name": "DEFAULT_ADMIN_ROLE",
      "outputs": [
        {
          "internalType": "bytes32",
          "name": "",
          "type": "bytes32"
        }
      ],
      "stateMutability": "view",
      "type": "function"
    },
    {
      "inputs": [
        {
          "internalType": "address",
          "name": "account",
          "type": "address"
        }
      ],
      "name": "addAdmin",
      "outputs": [],
      "stateMutability": "nonpayable",
      "type": "function"
    },
    {
      "inputs": [
        {
          "internalType": "address",
          "name": "to",
          "type": "address"
        },
        {
          "internalType": "uint256",
          "name": "tokenId",
          "type": "uint256"
        }
      ],
      "name": "approve",
      "outputs": [],
      "stateMutability": "nonpayable",
      "type": "function"
    },
    {
      "inputs": [
        {
          "internalType": "address",
          "name": "owner",
          "type": "address"
        }
      ],
      "name": "balanceOf",
      "outputs": [
        {
          "internalType": "uint256",
          "name": "",
          "type": "uint256"
        }
      ],
      "stateMutability": "view",
      "type": "function"
    },
    {
      "inputs": [
        {
          "internalType": "uint256[]",
          "name": "tokenIds",
          "type": "uint256[]"
        }
      ],
      "name": "batchBurn",
      "outputs": [],
      "stateMutability": "nonpayable",
      "type": "function"
    },
    {
      "inputs": [
        {
          "internalType": "address",
          "name": "to",
          "type": "address"
        },
        {
          "internalType": "uint256",
          "name": "numberOfTokens",
          "type": "uint256"
        }
      ],
      "name": "batchMint",
      "outputs": [],
      "stateMutability": "nonpayable",
      "type": "function"
    },
    {
      "inputs": [
        {
          "internalType": "address",
          "name": "from",
          "type": "address"
        },
        {
          "internalType": "address",
          "name": "to",
          "type": "address"
        },
        {
          "internalType": "uint256[]",
          "name": "tokenIds",
          "type": "uint256[]"
        }
      ],
      "name": "batchTransfer",
      "outputs": [],
      "stateMutability": "nonpayable",
      "type": "function"
    },
    {
      "inputs": [
        {
          "internalType": "uint256",
          "name": "tokenId",
          "type": "uint256"
        }
      ],
      "name": "getApproved",
      "outputs": [
        {
          "internalType": "address",
          "name": "",
          "type": "address"
        }
      ],
      "stateMutability": "view",
      "type": "function"
    },
    {
      "inputs": [
        {
          "internalType": "bytes32",
          "name": "role",
          "type": "bytes32"
        }
      ],
      "name": "getRoleAdmin",
      "outputs": [
        {
          "internalType": "bytes32",
          "name": "",
          "type": "bytes32"
        }
      ],
      "stateMutability": "view",
      "type": "function"
    },
    {
      "inputs": [
        {
          "internalType": "bytes32",
          "name": "role",
          "type": "bytes32"
        },
        {
          "internalType": "address",
          "name": "account",
          "type": "address"
        }
      ],
      "name": "grantRole",
      "outputs": [],
      "stateMutability": "nonpayable",
      "type": "function"
    },
    {
      "inputs": [
        {
          "internalType": "bytes32",
          "name": "role",
          "type": "bytes32"
        },
        {
          "internalType": "address",
          "name": "account",
          "type": "address"
        }
      ],
      "name": "hasRole",
      "outputs": [
        {
          "internalType": "bool",
          "name": "",
          "type": "bool"
        }
      ],
      "stateMutability": "view",
      "type": "function"
    },
    {
      "inputs": [
        {
          "internalType": "string",
          "name": "name",
          "type": "string"
        },
        {
          "internalType": "string",
          "name": "symbol",
          "type": "string"
        },
        {
          "internalType": "string",
          "name": "baseTokenURI",
          "type": "string"
        }
      ],
      "name": "initialize",
      "outputs": [],
      "stateMutability": "nonpayable",
      "type": "function"
    },
    {
      "inputs": [
        {
          "internalType": "address",
          "name": "account",
          "type": "address"
        }
      ],
      "name": "isAdmin",
      "outputs": [
        {
          "internalType": "bool",
          "name": "",
          "type": "bool"
        }
      ],
      "stateMutability": "view",
      "type": "function"
    },
    {
      "inputs": [
        {
          "internalType": "address",
          "name": "owner",
          "type": "address"
        },
        {
          "internalType": "address",
          "name": "operator",
          "type": "address"
        }
      ],
      "name": "isApprovedForAll",
      "outputs": [
        {
          "internalType": "bool",
          "name": "",
          "type": "bool"
        }
      ],
      "stateMutability": "view",
      "type": "function"
    },
    {
      "inputs": [],
      "name": "name",
      "outputs": [
        {
          "internalType": "string",
          "name": "",
          "type": "string"
        }
      ],
      "stateMutability": "view",
      "type": "function"
    },
    {
      "inputs": [
        {
          "internalType": "uint256",
          "name": "tokenId",
          "type": "uint256"
        }
      ],
      "name": "ownerOf",
      "outputs": [
        {
          "internalType": "address",
          "name": "",
          "type": "address"
        }
      ],
      "stateMutability": "view",
      "type": "function"
    },
    {
      "inputs": [],
      "name": "renounceAdmin",
      "outputs": [],
      "stateMutability": "nonpayable",
      "type": "function"
    },
    {
      "inputs": [
        {
          "internalType": "bytes32",
          "name": "role",
          "type": "bytes32"
        },
        {
          "internalType": "address",
          "name": "account",
          "type": "address"
        }
      ],
      "name": "renounceRole",
      "outputs": [],
      "stateMutability": "nonpayable",
      "type": "function"
    },
    {
      "inputs": [
        {
          "internalType": "bytes32",
          "name": "role",
          "type": "bytes32"
        },
        {
          "internalType": "address",
          "name": "account",
          "type": "address"
        }
      ],
      "name": "revokeRole",
      "outputs": [],
      "stateMutability": "nonpayable",
      "type": "function"
    },
    {
      "inputs": [
        {
          "internalType": "address",
          "name": "from",
          "type": "address"
        },
        {
          "internalType": "address",
          "name": "to",
          "type": "address"
        },
        {
          "internalType": "uint256",
          "name": "tokenId",
          "type": "uint256"
        }
      ],
      "name": "safeTransferFrom",
      "outputs": [],
      "stateMutability": "nonpayable",
      "type": "function"
    },
    {
      "inputs": [
        {
          "internalType": "address",
          "name": "from",
          "type": "address"
        },
        {
          "internalType": "address",
          "name": "to",
          "type": "address"
        },
        {
          "internalType": "uint256",
          "name": "tokenId",
          "type": "uint256"
        },
        {
          "internalType": "bytes",
          "name": "data",
          "type": "bytes"
        }
      ],
      "name": "safeTransferFrom",
      "outputs": [],
      "stateMutability": "nonpayable",
      "type": "function"
    },
    {
      "inputs": [
        {
          "internalType": "address",
          "name": "operator",
          "type": "address"
        },
        {
          "internalType": "bool",
          "name": "approved",
          "type": "bool"
        }
      ],
      "name": "setApprovalForAll",
      "outputs": [],
      "stateMutability": "nonpayable",
      "type": "function"
    },
    {
      "inputs": [
        {
          "internalType": "string",
          "name": "baseTokenURI",
          "type": "string"
        }
      ],
      "name": "setBaseURI",
      "outputs": [],
      "stateMutability": "nonpayable",
      "type": "function"
    },
    {
      "inputs": [
        {
          "internalType": "bytes4",
          "name": "interfaceId",
          "type": "bytes4"
        }
      ],
      "name": "supportsInterface",
      "outputs": [
        {
          "internalType": "bool",
          "name": "",
          "type": "bool"
        }
      ],
      "stateMutability": "view",
      "type": "function"
    },
    {
      "inputs": [],
      "name": "symbol",
      "outputs": [
        {
          "internalType": "string",
          "name": "",
          "type": "string"
        }
      ],
      "stateMutability": "view",
      "type": "function"
    },
    {
      "inputs": [
        {
          "internalType": "uint256",
          "name": "tokenId",
          "type": "uint256"
        }
      ],
      "name": "tokenURI",
      "outputs": [
        {
          "internalType": "string",
          "name": "",
          "type": "string"
        }
      ],
      "stateMutability": "view",
      "type": "function"
    },
    {
      "inputs": [
        {
          "internalType": "address",
          "name": "from",
          "type": "address"
        },
        {
          "internalType": "address",
          "name": "to",
          "type": "address"
        },
        {
          "internalType": "uint256",
          "name": "tokenId",
          "type": "uint256"
        }
      ],
      "name": "transferFrom",
      "outputs": [],
      "stateMutability": "nonpayable",
      "type": "function"
    }
  ],
  "bytecode": "0x608060405234801561001057600080fd5b5061217a806100206000396000f3fe608060405234801561001057600080fd5b50600436106101495760003560e01c806301ffc9a71461014e57806306fdde0314610176578063081812fc1461018b578063095ea7b3146101b657806323b872dd146101cb578063248a9ca3146101de57806324d7806c146101ff5780632f2ff15d146102125780633593cebc1461022557806336568abe1461023857806342842e0e1461024b57806343508b051461025e57806355f804b3146102715780636352211e14610284578063704802751461029757806370a08231146102aa5780638bad0c0a146102bd57806391d14854146102c557806395d89b41146102d8578063a217fddf146102e0578063a22cb465146102e8578063a6487c53146102fb578063b88d4fde1461030e578063c87b56dd14610321578063d547741f14610334578063dc8e92ea14610347578063e985e9c51461035a575b600080fd5b61016161015c3660046117d7565b61036d565b60405190151581526020015b60405180910390f35b61017e610398565b60405161016d9190611844565b61019e610199366004611857565b61042a565b6040516001600160a01b03909116815260200161016d565b6101c96101c436600461188c565b610451565b005b6101c96101d93660046118b6565b61056b565b6101f16101ec366004611857565b61059c565b60405190815260200161016d565b61016161020d3660046118f2565b6105b1565b6101c961022036600461190d565b6105bd565b6101c96102333660046119fe565b6105d9565b6101c961024636600461190d565b6106ba565b6101c96102593660046118b6565b610738565b6101c961026c36600461188c565b610753565b6101c961027f366004611ad2565b6107ac565b61019e610292366004611857565b6107dd565b6101c96102a53660046118f2565b610811565b6101f16102b83660046118f2565b610844565b6101c96108ca565b6101616102d336600461190d565b6108d7565b61017e610902565b6101f1600081565b6101c96102f6366004611b06565b610911565b6101c9610309366004611b42565b61091c565b6101c961031c366004611bbf565b610a4e565b61017e61032f366004611857565b610a80565b6101c961034236600461190d565b610ae7565b6101c9610355366004611c3a565b610b03565b610161610368366004611c6e565b610bc0565b60006001600160e01b03198216637965db0b60e01b1480610392575061039282610bee565b92915050565b6060606580546103a790611c98565b80601f01602080910402602001604051908101604052809291908181526020018280546103d390611c98565b80156104205780601f106103f557610100808354040283529160200191610420565b820191906000526020600020905b81548152906001019060200180831161040357829003601f168201915b5050505050905090565b600061043582610c13565b506000908152606960205260409020546001600160a01b031690565b600061045c826107dd565b9050806001600160a01b0316836001600160a01b0316036104ce5760405162461bcd60e51b815260206004820152602160248201527f4552433732313a20617070726f76616c20746f2063757272656e74206f776e656044820152603960f91b60648201526084015b60405180910390fd5b336001600160a01b03821614806104ea57506104ea8133610bc0565b61055c5760405162461bcd60e51b815260206004820152603d60248201527f4552433732313a20617070726f76652063616c6c6572206973206e6f7420746f60448201527f6b656e206f776e6572206f7220617070726f76656420666f7220616c6c00000060648201526084016104c5565b6105668383610c38565b505050565b6105753382610ca6565b6105915760405162461bcd60e51b81526004016104c590611cd2565b610566838383610d05565b60009081526097602052604090206001015490565b600061039281836108d7565b6105c68261059c565b6105cf81610e57565b6105668383610e61565b60005b81518110156106b457610609335b8383815181106105fc576105fc611d1f565b6020026020010151610ca6565b806106185750610618336105b1565b6106885760405162461bcd60e51b815260206004820152603b60248201527f4552433732313a207472616e736665722063616c6c6572206973206e6f74206f60448201527a3bb732b9103737b91030b8383937bb32b2103737b91030b236b4b760291b60648201526084016104c5565b6106ac848484848151811061069f5761069f611d1f565b6020026020010151610d05565b6001016105dc565b50505050565b6001600160a01b038116331461072a5760405162461bcd60e51b815260206004820152602f60248201527f416363657373436f6e74726f6c3a2063616e206f6e6c792072656e6f756e636560448201526e103937b632b9903337b91039b2b63360891b60648201526084016104c5565b6107348282610ee7565b5050565b61056683838360405180602001604052806000815250610a4e565b61075c336105b1565b6107785760405162461bcd60e51b81526004016104c590611d35565b60005b818110156105665761078f8360c954610f4e565b60c9805490600061079f83611d79565b909155505060010161077b565b6107b5336105b1565b6107d15760405162461bcd60e51b81526004016104c590611d35565b60ca6107348282611de2565b6000806107e983611049565b90506001600160a01b0381166103925760405162461bcd60e51b81526004016104c590611ea1565b61081a336105b1565b6108365760405162461bcd60e51b81526004016104c590611d35565b6108416000826105bd565b50565b60006001600160a01b0382166108ae5760405162461bcd60e51b815260206004820152602960248201527f4552433732313a2061646472657373207a65726f206973206e6f7420612076616044820152683634b21037bbb732b960b91b60648201526084016104c5565b506001600160a01b031660009081526068602052604090205490565b6108d56000336106ba565b565b60009182526097602090815260408084206001600160a01b0393909316845291905290205460ff1690565b6060606680546103a790611c98565b610734338383611064565b600054610100900460ff161580801561093c5750600054600160ff909116105b8061095d575061094b3061112e565b15801561095d575060005460ff166001145b6109c05760405162461bcd60e51b815260206004820152602e60248201527f496e697469616c697a61626c653a20636f6e747261637420697320616c72656160448201526d191e481a5b9a5d1a585b1a5e995960921b60648201526084016104c5565b6000805460ff1916600117905580156109e3576000805461ff0019166101001790555b6109ed848461113d565b6109f63361116e565b60ca610a028382611de2565b5080156106b4576000805461ff0019169055604051600181527f7f26b83ff96e1f2b6a682f133852f6798a09c465da95921460cefb38474024989060200160405180910390a150505050565b610a583383610ca6565b610a745760405162461bcd60e51b81526004016104c590611cd2565b6106b4848484846111a8565b6060610a8b82610c13565b6000610a956111db565b90506000815111610ab55760405180602001604052806000815250610ae0565b80610abf846111ea565b604051602001610ad0929190611ed3565b6040516020818303038152906040525b9392505050565b610af08261059c565b610af981610e57565b6105668383610ee7565b60005b815181101561073457610b18336105ea565b80610b275750610b27336105b1565b610b965760405162461bcd60e51b815260206004820152603a60248201527f4552433732314275726e61626c653a2063616c6c6572206973206e6f74206f776044820152793732b9103737b91030b8383937bb32b2103737b91030b236b4b760311b60648201526084016104c5565b610bb8828281518110610bab57610bab611d1f565b602002602001015161127c565b600101610b06565b6001600160a01b039182166000908152606a6020908152604080832093909416825291909152205460ff1690565b60006001600160e01b03198216637965db0b60e01b14806103925750610392826112ff565b610c1c8161134f565b6108415760405162461bcd60e51b81526004016104c590611ea1565b600081815260696020526040902080546001600160a01b0319166001600160a01b0384169081179091558190610c6d826107dd565b6001600160a01b03167f8c5be1e5ebec7d5bd14f71427d1e84f3dd0314c0f7b2291e5b200ac8c7c3b92560405160405180910390a45050565b600080610cb2836107dd565b9050806001600160a01b0316846001600160a01b03161480610cd95750610cd98185610bc0565b80610cfd5750836001600160a01b0316610cf28461042a565b6001600160a01b0316145b949350505050565b826001600160a01b0316610d18826107dd565b6001600160a01b031614610d3e5760405162461bcd60e51b81526004016104c590611f02565b6001600160a01b038216610da05760405162461bcd60e51b8152602060048201526024808201527f4552433732313a207472616e7366657220746f20746865207a65726f206164646044820152637265737360e01b60648201526084016104c5565b826001600160a01b0316610db3826107dd565b6001600160a01b031614610dd95760405162461bcd60e51b81526004016104c590611f02565b600081815260696020908152604080832080546001600160a01b03199081169091556001600160a01b03878116808652606885528386208054600019019055908716808652838620805460010190558686526067909452828520805490921684179091559051849360008051602061212583398151915291a4505050565b610841813361136c565b610e6b82826108d7565b6107345760008281526097602090815260408083206001600160a01b03851684529091529020805460ff19166001179055610ea33390565b6001600160a01b0316816001600160a01b0316837f2f8788117e7eff1d82e926ec794901d17c78024a50270940304540a733656f0d60405160405180910390a45050565b610ef182826108d7565b156107345760008281526097602090815260408083206001600160a01b0385168085529252808320805460ff1916905551339285917ff6391f5c32d9c69d2a47ea670b442974b53935d1edc7fd64eb21e047a839171b9190a45050565b6001600160a01b038216610fa45760405162461bcd60e51b815260206004820181905260248201527f4552433732313a206d696e7420746f20746865207a65726f206164647265737360448201526064016104c5565b610fad8161134f565b15610fca5760405162461bcd60e51b81526004016104c590611f47565b610fd38161134f565b15610ff05760405162461bcd60e51b81526004016104c590611f47565b6001600160a01b038216600081815260686020908152604080832080546001019055848352606790915280822080546001600160a01b031916841790555183929190600080516020612125833981519152908290a45050565b6000908152606760205260409020546001600160a01b031690565b816001600160a01b0316836001600160a01b0316036110c15760405162461bcd60e51b815260206004820152601960248201527822a9219b99189d1030b8383937bb32903a379031b0b63632b960391b60448201526064016104c5565b6001600160a01b038381166000818152606a6020908152604080832094871680845294825291829020805460ff191686151590811790915591519182527f17307eab39ab6107e8899845ad3d59bd9653f200f220920489ca2b5937696c31910160405180910390a3505050565b6001600160a01b03163b151590565b600054610100900460ff166111645760405162461bcd60e51b81526004016104c590611f7d565b61073482826113c5565b600054610100900460ff166111955760405162461bcd60e51b81526004016104c590611f7d565b61119d611405565b61084160008261142c565b6111b3848484610d05565b6111bf84848484611436565b6106b45760405162461bcd60e51b81526004016104c590611fc8565b606060ca80546103a790611c98565b606060006111f78361153e565b60010190506000816001600160401b0381111561121657611216611939565b6040519080825280601f01601f191660200182016040528015611240576020820181803683370190505b5090508181016020015b600019016f181899199a1a9b1b9c1cb0b131b232b360811b600a86061a8153600a850494508461124a57509392505050565b6000611287826107dd565b9050611292826107dd565b600083815260696020908152604080832080546001600160a01b03199081169091556001600160a01b038516808552606884528285208054600019019055878552606790935281842080549091169055519293508492600080516020612125833981519152908390a45050565b60006001600160e01b031982166380ac58cd60e01b148061133057506001600160e01b03198216635b5e139f60e01b145b8061039257506301ffc9a760e01b6001600160e01b0319831614610392565b60008061135b83611049565b6001600160a01b0316141592915050565b61137682826108d7565b6107345761138381611614565b61138e836020611626565b60405160200161139f92919061201a565b60408051601f198184030181529082905262461bcd60e51b82526104c591600401611844565b600054610100900460ff166113ec5760405162461bcd60e51b81526004016104c590611f7d565b60656113f88382611de2565b5060666105668282611de2565b600054610100900460ff166108d55760405162461bcd60e51b81526004016104c590611f7d565b6107348282610e61565b600061144a846001600160a01b031661112e565b1561153357604051630a85bd0160e11b81526001600160a01b0385169063150b7a0290611481903390899088908890600401612089565b6020604051808303816000875af19250505080156114bc575060408051601f3d908101601f191682019092526114b9918101906120c6565b60015b611519573d8080156114ea576040519150601f19603f3d011682016040523d82523d6000602084013e6114ef565b606091505b5080516000036115115760405162461bcd60e51b81526004016104c590611fc8565b805181602001fd5b6001600160e01b031916630a85bd0160e11b149050610cfd565b506001949350505050565b60008072184f03e93ff9f4daa797ed6e38ed64bf6a1f0160401b831061157d5772184f03e93ff9f4daa797ed6e38ed64bf6a1f0160401b830492506040015b6904ee2d6d415b85acef8160201b83106115a7576904ee2d6d415b85acef8160201b830492506020015b662386f26fc1000083106115c557662386f26fc10000830492506010015b6305f5e10083106115dd576305f5e100830492506008015b61271083106115f157612710830492506004015b60648310611603576064830492506002015b600a83106103925760010192915050565b60606103926001600160a01b03831660145b606060006116358360026120e3565b6116409060026120fa565b6001600160401b0381111561165757611657611939565b6040519080825280601f01601f191660200182016040528015611681576020820181803683370190505b509050600360fc1b8160008151811061169c5761169c611d1f565b60200101906001600160f81b031916908160001a905350600f60fb1b816001815181106116cb576116cb611d1f565b60200101906001600160f81b031916908160001a90535060006116ef8460026120e3565b6116fa9060016120fa565b90505b6001811115611772576f181899199a1a9b1b9c1cb0b131b232b360811b85600f166010811061172e5761172e611d1f565b1a60f81b82828151811061174457611744611d1f565b60200101906001600160f81b031916908160001a90535060049490941c9361176b8161210d565b90506116fd565b508315610ae05760405162461bcd60e51b815260206004820181905260248201527f537472696e67733a20686578206c656e67746820696e73756666696369656e7460448201526064016104c5565b6001600160e01b03198116811461084157600080fd5b6000602082840312156117e957600080fd5b8135610ae0816117c1565b60005b8381101561180f5781810151838201526020016117f7565b50506000910152565b600081518084526118308160208601602086016117f4565b601f01601f19169290920160200192915050565b602081526000610ae06020830184611818565b60006020828403121561186957600080fd5b5035919050565b80356001600160a01b038116811461188757600080fd5b919050565b6000806040838503121561189f57600080fd5b6118a883611870565b946020939093013593505050565b6000806000606084860312156118cb57600080fd5b6118d484611870565b92506118e260208501611870565b9150604084013590509250925092565b60006020828403121561190457600080fd5b610ae082611870565b6000806040838503121561192057600080fd5b8235915061193060208401611870565b90509250929050565b634e487b7160e01b600052604160045260246000fd5b604051601f8201601f191681016001600160401b038111828210171561197757611977611939565b604052919050565b600082601f83011261199057600080fd5b813560206001600160401b038211156119ab576119ab611939565b8160051b6119ba82820161194f565b92835284810182019282810190878511156119d457600080fd5b83870192505b848310156119f3578235825291830191908301906119da565b979650505050505050565b600080600060608486031215611a1357600080fd5b611a1c84611870565b9250611a2a60208501611870565b915060408401356001600160401b03811115611a4557600080fd5b611a518682870161197f565b9150509250925092565b60006001600160401b03831115611a7457611a74611939565b611a87601f8401601f191660200161194f565b9050828152838383011115611a9b57600080fd5b828260208301376000602084830101529392505050565b600082601f830112611ac357600080fd5b610ae083833560208501611a5b565b600060208284031215611ae457600080fd5b81356001600160401b03811115611afa57600080fd5b610cfd84828501611ab2565b60008060408385031215611b1957600080fd5b611b2283611870565b915060208301358015158114611b3757600080fd5b809150509250929050565b600080600060608486031215611b5757600080fd5b83356001600160401b0380821115611b6e57600080fd5b611b7a87838801611ab2565b94506020860135915080821115611b9057600080fd5b611b9c87838801611ab2565b93506040860135915080821115611bb257600080fd5b50611a5186828701611ab2565b60008060008060808587031215611bd557600080fd5b611bde85611870565b9350611bec60208601611870565b92506040850135915060608501356001600160401b03811115611c0e57600080fd5b8501601f81018713611c1f57600080fd5b611c2e87823560208401611a5b565b91505092959194509250565b600060208284031215611c4c57600080fd5b81356001600160401b03811115611c6257600080fd5b610cfd8482850161197f565b60008060408385031215611c8157600080fd5b611c8a83611870565b915061193060208401611870565b600181811c90821680611cac57607f821691505b602082108103611ccc57634e487b7160e01b600052602260045260246000fd5b50919050565b6020808252602d908201527f4552433732313a2063616c6c6572206973206e6f7420746f6b656e206f776e6560408201526c1c881bdc88185c1c1c9bdd9959609a1b606082015260800190565b634e487b7160e01b600052603260045260246000fd5b6020808252601490820152735265737472696374656420746f2061646d696e7360601b604082015260600190565b634e487b7160e01b600052601160045260246000fd5b600060018201611d8b57611d8b611d63565b5060010190565b601f821115610566576000816000526020600020601f850160051c81016020861015611dbb5750805b601f850160051c820191505b81811015611dda57828155600101611dc7565b505050505050565b81516001600160401b03811115611dfb57611dfb611939565b611e0f81611e098454611c98565b84611d92565b602080601f831160018114611e445760008415611e2c5750858301515b600019600386901b1c1916600185901b178555611dda565b600085815260208120601f198616915b82811015611e7357888601518255948401946001909101908401611e54565b5085821015611e915787850151600019600388901b60f8161c191681555b5050505050600190811b01905550565b602080825260189082015277115490cdcc8c4e881a5b9d985b1a59081d1bdad95b88125160421b604082015260600190565b60008351611ee58184602088016117f4565b835190830190611ef98183602088016117f4565b01949350505050565b60208082526025908201527f4552433732313a207472616e736665722066726f6d20696e636f72726563742060408201526437bbb732b960d91b606082015260800190565b6020808252601c908201527b115490cdcc8c4e881d1bdad95b88185b1c9958591e481b5a5b9d195960221b604082015260600190565b6020808252602b908201527f496e697469616c697a61626c653a20636f6e7472616374206973206e6f74206960408201526a6e697469616c697a696e6760a81b606082015260800190565b60208082526032908201527f4552433732313a207472616e7366657220746f206e6f6e20455243373231526560408201527131b2b4bb32b91034b6b83632b6b2b73a32b960711b606082015260800190565b76020b1b1b2b9b9a1b7b73a3937b61d1030b1b1b7bab73a1604d1b81526000835161204c8160178501602088016117f4565b7001034b99036b4b9b9b4b733903937b6329607d1b601791840191820152835161207d8160288401602088016117f4565b01602801949350505050565b6001600160a01b03858116825284166020820152604081018390526080606082018190526000906120bc90830184611818565b9695505050505050565b6000602082840312156120d857600080fd5b8151610ae0816117c1565b808202811582820484141761039257610392611d63565b8082018082111561039257610392611d63565b60008161211c5761211c611d63565b50600019019056feddf252ad1be2c89b69c2b068fc378daa952ba7f163c4a11628f55a4df523b3efa2646970667358221220a74d91e541e3013f839502e162c88ddbba6491d10a0ec875799de04ad006f3e264736f6c63430008180033",
  "linkReferences": {},
  "deployedLinkReferences": {}
}