{
  "address": "0x589B66eb7BB00C215bd93A3fF514b34fB436713F",
  "_format": "hh-sol-artifact-1",
  "contractName": "BridgeTowerNftUpgradeableERC1155",
  "sourceName": "contracts/BridgeTowerNftUpgradeableERC1155.sol",
  "abi": [
    {
      "anonymous": false,
      "inputs": [
        {
          "indexed": true,
          "internalType": "address",
          "name": "account",
          "type": "address"
        },
        {
          "indexed": true,
          "internalType": "address",
          "name": "operator",
          "type": "address"
        },
        {
          "indexed": false,
          "internalType": "bool",
          "name": "approved",
          "type": "bool"
        }
      ],
      "name": "ApprovalForAll",
      "type": "event"
    },
    {
      "anonymous": false,
      "inputs": [
        {
          "indexed": false,
          "internalType": "uint8",
          "name": "version",
          "type": "uint8"
        }
      ],
      "name": "Initialized",
      "type": "event"
    },
    {
      "anonymous": false,
      "inputs": [
        {
          "indexed": true,
          "internalType": "bytes32",
          "name": "role",
          "type": "bytes32"
        },
        {
          "indexed": true,
          "internalType": "bytes32",
          "name": "previousAdminRole",
          "type": "bytes32"
        },
        {
          "indexed": true,
          "internalType": "bytes32",
          "name": "newAdminRole",
          "type": "bytes32"
        }
      ],
      "name": "RoleAdminChanged",
      "type": "event"
    },
    {
      "anonymous": false,
      "inputs": [
        {
          "indexed": true,
          "internalType": "bytes32",
          "name": "role",
          "type": "bytes32"
        },
        {
          "indexed": true,
          "internalType": "address",
          "name": "account",
          "type": "address"
        },
        {
          "indexed": true,
          "internalType": "address",
          "name": "sender",
          "type": "address"
        }
      ],
      "name": "RoleGranted",
      "type": "event"
    },
    {
      "anonymous": false,
      "inputs": [
        {
          "indexed": true,
          "internalType": "bytes32",
          "name": "role",
          "type": "bytes32"
        },
        {
          "indexed": true,
          "internalType": "address",
          "name": "account",
          "type": "address"
        },
        {
          "indexed": true,
          "internalType": "address",
          "name": "sender",
          "type": "address"
        }
      ],
      "name": "RoleRevoked",
      "type": "event"
    },
    {
      "anonymous": false,
      "inputs": [
        {
          "indexed": true,
          "internalType": "address",
          "name": "operator",
          "type": "address"
        },
        {
          "indexed": true,
          "internalType": "address",
          "name": "from",
          "type": "address"
        },
        {
          "indexed": true,
          "internalType": "address",
          "name": "to",
          "type": "address"
        },
        {
          "indexed": false,
          "internalType": "uint256[]",
          "name": "ids",
          "type": "uint256[]"
        },
        {
          "indexed": false,
          "internalType": "uint256[]",
          "name": "values",
          "type": "uint256[]"
        }
      ],
      "name": "TransferBatch",
      "type": "event"
    },
    {
      "anonymous": false,
      "inputs": [
        {
          "indexed": true,
          "internalType": "address",
          "name": "operator",
          "type": "address"
        },
        {
          "indexed": true,
          "internalType": "address",
          "name": "from",
          "type": "address"
        },
        {
          "indexed": true,
          "internalType": "address",
          "name": "to",
          "type": "address"
        },
        {
          "indexed": false,
          "internalType": "uint256",
          "name": "id",
          "type": "uint256"
        },
        {
          "indexed": false,
          "internalType": "uint256",
          "name": "value",
          "type": "uint256"
        }
      ],
      "name": "TransferSingle",
      "type": "event"
    },
    {
      "anonymous": false,
      "inputs": [
        {
          "indexed": false,
          "internalType": "string",
          "name": "value",
          "type": "string"
        },
        {
          "indexed": true,
          "internalType": "uint256",
          "name": "id",
          "type": "uint256"
        }
      ],
      "name": "URI",
      "type": "event"
    },
    {
      "inputs": [],
      "name": "DEFAULT_ADMIN_ROLE",
      "outputs": [
        {
          "internalType": "bytes32",
          "name": "",
          "type": "bytes32"
        }
      ],
      "stateMutability": "view",
      "type": "function"
    },
    {
      "inputs": [
        {
          "internalType": "address",
          "name": "account",
          "type": "address"
        }
      ],
      "name": "addAdmin",
      "outputs": [],
      "stateMutability": "nonpayable",
      "type": "function"
    },
    {
      "inputs": [
        {
          "internalType": "address",
          "name": "account",
          "type": "address"
        },
        {
          "internalType": "uint256",
          "name": "id",
          "type": "uint256"
        }
      ],
      "name": "balanceOf",
      "outputs": [
        {
          "internalType": "uint256",
          "name": "",
          "type": "uint256"
        }
      ],
      "stateMutability": "view",
      "type": "function"
    },
    {
      "inputs": [
        {
          "internalType": "address[]",
          "name": "accounts",
          "type": "address[]"
        },
        {
          "internalType": "uint256[]",
          "name": "ids",
          "type": "uint256[]"
        }
      ],
      "name": "balanceOfBatch",
      "outputs": [
        {
          "internalType": "uint256[]",
          "name": "",
          "type": "uint256[]"
        }
      ],
      "stateMutability": "view",
      "type": "function"
    },
    {
      "inputs": [
        {
          "internalType": "address",
          "name": "from",
          "type": "address"
        },
        {
          "internalType": "uint256[]",
          "name": "ids",
          "type": "uint256[]"
        },
        {
          "internalType": "uint256[]",
          "name": "amounts",
          "type": "uint256[]"
        }
      ],
      "name": "batchBurn",
      "outputs": [],
      "stateMutability": "nonpayable",
      "type": "function"
    },
    {
      "inputs": [
        {
          "internalType": "address",
          "name": "to",
          "type": "address"
        },
        {
          "internalType": "uint256[]",
          "name": "ids",
          "type": "uint256[]"
        },
        {
          "internalType": "uint256[]",
          "name": "amounts",
          "type": "uint256[]"
        },
        {
          "internalType": "bytes",
          "name": "data",
          "type": "bytes"
        }
      ],
      "name": "batchMint",
      "outputs": [],
      "stateMutability": "nonpayable",
      "type": "function"
    },
    {
      "inputs": [
        {
          "internalType": "address",
          "name": "to",
          "type": "address"
        },
        {
          "internalType": "uint256",
          "name": "id",
          "type": "uint256"
        },
        {
          "internalType": "uint256",
          "name": "amount",
          "type": "uint256"
        },
        {
          "internalType": "bytes",
          "name": "data",
          "type": "bytes"
        }
      ],
      "name": "batchMintToSingleAddress",
      "outputs": [],
      "stateMutability": "nonpayable",
      "type": "function"
    },
    {
      "inputs": [
        {
          "internalType": "bytes32",
          "name": "role",
          "type": "bytes32"
        }
      ],
      "name": "getRoleAdmin",
      "outputs": [
        {
          "internalType": "bytes32",
          "name": "",
          "type": "bytes32"
        }
      ],
      "stateMutability": "view",
      "type": "function"
    },
    {
      "inputs": [
        {
          "internalType": "bytes32",
          "name": "role",
          "type": "bytes32"
        },
        {
          "internalType": "address",
          "name": "account",
          "type": "address"
        }
      ],
      "name": "grantRole",
      "outputs": [],
      "stateMutability": "nonpayable",
      "type": "function"
    },
    {
      "inputs": [
        {
          "internalType": "bytes32",
          "name": "role",
          "type": "bytes32"
        },
        {
          "internalType": "address",
          "name": "account",
          "type": "address"
        }
      ],
      "name": "hasRole",
      "outputs": [
        {
          "internalType": "bool",
          "name": "",
          "type": "bool"
        }
      ],
      "stateMutability": "view",
      "type": "function"
    },
    {
      "inputs": [
        {
          "internalType": "string",
          "name": "baseURI",
          "type": "string"
        }
      ],
      "name": "initialize",
      "outputs": [],
      "stateMutability": "nonpayable",
      "type": "function"
    },
    {
      "inputs": [
        {
          "internalType": "address",
          "name": "account",
          "type": "address"
        }
      ],
      "name": "isAdmin",
      "outputs": [
        {
          "internalType": "bool",
          "name": "",
          "type": "bool"
        }
      ],
      "stateMutability": "view",
      "type": "function"
    },
    {
      "inputs": [
        {
          "internalType": "address",
          "name": "account",
          "type": "address"
        },
        {
          "internalType": "address",
          "name": "operator",
          "type": "address"
        }
      ],
      "name": "isApprovedForAll",
      "outputs": [
        {
          "internalType": "bool",
          "name": "",
          "type": "bool"
        }
      ],
      "stateMutability": "view",
      "type": "function"
    },
    {
      "inputs": [],
      "name": "renounceAdmin",
      "outputs": [],
      "stateMutability": "nonpayable",
      "type": "function"
    },
    {
      "inputs": [
        {
          "internalType": "bytes32",
          "name": "role",
          "type": "bytes32"
        },
        {
          "internalType": "address",
          "name": "account",
          "type": "address"
        }
      ],
      "name": "renounceRole",
      "outputs": [],
      "stateMutability": "nonpayable",
      "type": "function"
    },
    {
      "inputs": [
        {
          "internalType": "bytes32",
          "name": "role",
          "type": "bytes32"
        },
        {
          "internalType": "address",
          "name": "account",
          "type": "address"
        }
      ],
      "name": "revokeRole",
      "outputs": [],
      "stateMutability": "nonpayable",
      "type": "function"
    },
    {
      "inputs": [
        {
          "internalType": "address",
          "name": "from",
          "type": "address"
        },
        {
          "internalType": "address",
          "name": "to",
          "type": "address"
        },
        {
          "internalType": "uint256[]",
          "name": "ids",
          "type": "uint256[]"
        },
        {
          "internalType": "uint256[]",
          "name": "amounts",
          "type": "uint256[]"
        },
        {
          "internalType": "bytes",
          "name": "data",
          "type": "bytes"
        }
      ],
      "name": "safeBatchTransferFrom",
      "outputs": [],
      "stateMutability": "nonpayable",
      "type": "function"
    },
    {
      "inputs": [
        {
          "internalType": "address",
          "name": "from",
          "type": "address"
        },
        {
          "internalType": "address",
          "name": "to",
          "type": "address"
        },
        {
          "internalType": "uint256",
          "name": "id",
          "type": "uint256"
        },
        {
          "internalType": "uint256",
          "name": "amount",
          "type": "uint256"
        },
        {
          "internalType": "bytes",
          "name": "data",
          "type": "bytes"
        }
      ],
      "name": "safeTransferFrom",
      "outputs": [],
      "stateMutability": "nonpayable",
      "type": "function"
    },
    {
      "inputs": [
        {
          "internalType": "address",
          "name": "operator",
          "type": "address"
        },
        {
          "internalType": "bool",
          "name": "approved",
          "type": "bool"
        }
      ],
      "name": "setApprovalForAll",
      "outputs": [],
      "stateMutability": "nonpayable",
      "type": "function"
    },
    {
      "inputs": [
        {
          "internalType": "bytes4",
          "name": "interfaceId",
          "type": "bytes4"
        }
      ],
      "name": "supportsInterface",
      "outputs": [
        {
          "internalType": "bool",
          "name": "",
          "type": "bool"
        }
      ],
      "stateMutability": "view",
      "type": "function"
    },
    {
      "inputs": [
        {
          "internalType": "uint256",
          "name": "tokenId",
          "type": "uint256"
        }
      ],
      "name": "uri",
      "outputs": [
        {
          "internalType": "string",
          "name": "",
          "type": "string"
        }
      ],
      "stateMutability": "view",
      "type": "function"
    }
  ],
  "bytecode": "0x608060405234801561001057600080fd5b5061263e806100206000396000f3fe608060405234801561001057600080fd5b50600436106101065760003560e01c8062fdd58e1461010b57806301ffc9a7146101315780630e89341c14610154578063248a9ca31461017457806324d7806c146101875780632eb2c2d61461019a5780632f2ff15d146101af57806336568abe146101c25780634e1273f4146101d5578063615ea835146101f557806370480275146102085780638bad0c0a1461021b57806391d1485414610223578063a217fddf14610236578063a22cb4651461023e578063b48ab8b614610251578063d547741f14610264578063e985e9c514610277578063f242432a1461028a578063f62d18881461029d578063f6eb127a146102b0575b600080fd5b61011e610119366004611918565b6102c3565b6040519081526020015b60405180910390f35b61014461013f366004611958565b61035e565b6040519015158152602001610128565b610167610162366004611975565b610369565b60405161012891906119de565b61011e610182366004611975565b6103c7565b6101446101953660046119f1565b6103dc565b6101ad6101a8366004611b64565b6103e8565b005b6101ad6101bd366004611c0d565b610434565b6101ad6101d0366004611c0d565b610455565b6101e86101e3366004611c39565b6104d3565b6040516101289190611d3f565b6101ad610203366004611d52565b6105f4565b6101ad6102163660046119f1565b6106b9565b6101ad6106ec565b610144610231366004611c0d565b6106f9565b61011e600081565b6101ad61024c366004611db2565b610724565b6101ad61025f366004611dee565b61072f565b6101ad610272366004611c0d565b610766565b610144610285366004611e7a565b610782565b6101ad610298366004611ea4565b6107b0565b6101ad6102ab366004611f08565b6107f5565b6101ad6102be366004611f58565b610924565b60006001600160a01b0383166103335760405162461bcd60e51b815260206004820152602a60248201527f455243313135353a2061646472657373207a65726f206973206e6f742061207660448201526930b634b21037bbb732b960b11b60648201526084015b60405180910390fd5b5060008181526065602090815260408083206001600160a01b03861684529091529020545b92915050565b6000610358826109b8565b6060600060c9805461037a90611fcb565b9050116103965760405180602001604052806000815250610358565b60c96103a1836109dd565b6040516020016103b2929190612005565b60405160208183030381529060405292915050565b60009081526097602052604090206001015490565b600061035881836106f9565b6001600160a01b03851633148061040457506104048533610782565b6104205760405162461bcd60e51b815260040161032a9061208c565b61042d8585858585610a6f565b5050505050565b61043d826103c7565b61044681610bed565b6104508383610bf7565b505050565b6001600160a01b03811633146104c55760405162461bcd60e51b815260206004820152602f60248201527f416363657373436f6e74726f6c3a2063616e206f6e6c792072656e6f756e636560448201526e103937b632b9903337b91039b2b63360891b606482015260840161032a565b6104cf8282610c7d565b5050565b606081518351146105385760405162461bcd60e51b815260206004820152602960248201527f455243313135353a206163636f756e747320616e6420696473206c656e677468604482015268040dad2e6dac2e8c6d60bb1b606482015260840161032a565b600083516001600160401b0381111561055357610553611a0c565b60405190808252806020026020018201604052801561057c578160200160208202803683370190505b50905060005b84518110156105ec576105c78582815181106105a0576105a06120da565b60200260200101518583815181106105ba576105ba6120da565b60200260200101516102c3565b8282815181106105d9576105d96120da565b6020908102919091010152600101610582565b509392505050565b6105fd336103dc565b6106195760405162461bcd60e51b815260040161032a906120f0565b6000836001600160401b0381111561063357610633611a0c565b60405190808252806020026020018201604052801561065c578160200160208202803683370190505b5090506000836001600160401b0381111561067957610679611a0c565b6040519080825280602002602001820160405280156106a2578160200160208202803683370190505b5090506106b186838386610ce4565b505050505050565b6106c2336103dc565b6106de5760405162461bcd60e51b815260040161032a906120f0565b6106e9600082610434565b50565b6106f7600033610455565b565b60009182526097602090815260408084206001600160a01b0393909316845291905290205460ff1690565b6104cf338383610e4d565b610738336103dc565b6107545760405162461bcd60e51b815260040161032a906120f0565b61076084848484610ce4565b50505050565b61076f826103c7565b61077881610bed565b6104508383610c7d565b6001600160a01b03918216600090815260666020908152604080832093909416825291909152205460ff1690565b6001600160a01b0385163314806107cc57506107cc8533610782565b6107e85760405162461bcd60e51b815260040161032a9061208c565b61042d8585858585610f2d565b600054610100900460ff16158080156108155750600054600160ff909116105b8061083657506108243061105b565b158015610836575060005460ff166001145b6108995760405162461bcd60e51b815260206004820152602e60248201527f496e697469616c697a61626c653a20636f6e747261637420697320616c72656160448201526d191e481a5b9a5d1a585b1a5e995960921b606482015260840161032a565b6000805460ff1916600117905580156108bc576000805461ff0019166101001790555b6108c58261106a565b6108ce3361109a565b60c96108da8382612166565b5080156104cf576000805461ff0019169055604051600181527f7f26b83ff96e1f2b6a682f133852f6798a09c465da95921460cefb38474024989060200160405180910390a15050565b61092e33846110d4565b8061093d575061093d336103dc565b6109ad5760405162461bcd60e51b815260206004820152603b60248201527f455243313135354275726e61626c653a2063616c6c6572206973206e6f74206f60448201527a3bb732b9103737b91030b8383937bb32b2103737b91030b236b4b760291b606482015260840161032a565b610450838383611102565b60006001600160e01b03198216637965db0b60e01b14806103585750610358826112eb565b606060006109ea8361133b565b60010190506000816001600160401b03811115610a0957610a09611a0c565b6040519080825280601f01601f191660200182016040528015610a33576020820181803683370190505b5090508181016020015b600019016f181899199a1a9b1b9c1cb0b131b232b360811b600a86061a8153600a8504945084610a3d57509392505050565b8151835114610a905760405162461bcd60e51b815260040161032a90612225565b6001600160a01b038416610ab65760405162461bcd60e51b815260040161032a9061226d565b3360005b8451811015610b99576000858281518110610ad757610ad76120da565b602002602001015190506000858381518110610af557610af56120da565b60209081029190910181015160008481526065835260408082206001600160a01b038e168352909352919091205490915081811015610b465760405162461bcd60e51b815260040161032a906122b2565b60008381526065602090815260408083206001600160a01b038e8116855292528083208585039055908b16825281208054849290610b85908490612312565b909155505060019093019250610aba915050565b50846001600160a01b0316866001600160a01b0316826001600160a01b03166000805160206125e98339815191528787604051610bd7929190612325565b60405180910390a46106b1818787878787611411565b6106e9813361157c565b610c0182826106f9565b6104cf5760008281526097602090815260408083206001600160a01b03851684529091529020805460ff19166001179055610c393390565b6001600160a01b0316816001600160a01b0316837f2f8788117e7eff1d82e926ec794901d17c78024a50270940304540a733656f0d60405160405180910390a45050565b610c8782826106f9565b156104cf5760008281526097602090815260408083206001600160a01b0385168085529252808320805460ff1916905551339285917ff6391f5c32d9c69d2a47ea670b442974b53935d1edc7fd64eb21e047a839171b9190a45050565b6001600160a01b038416610d445760405162461bcd60e51b815260206004820152602160248201527f455243313135353a206d696e7420746f20746865207a65726f206164647265736044820152607360f81b606482015260840161032a565b8151835114610d655760405162461bcd60e51b815260040161032a90612225565b3360005b8451811015610df757838181518110610d8457610d846120da565b602002602001015160656000878481518110610da257610da26120da565b602002602001015181526020019081526020016000206000886001600160a01b03166001600160a01b031681526020019081526020016000206000828254610dea9190612312565b9091555050600101610d69565b50846001600160a01b031660006001600160a01b0316826001600160a01b03166000805160206125e98339815191528787604051610e36929190612325565b60405180910390a461042d81600087878787611411565b816001600160a01b0316836001600160a01b031603610ec05760405162461bcd60e51b815260206004820152602960248201527f455243313135353a2073657474696e6720617070726f76616c20737461747573604482015268103337b91039b2b63360b91b606482015260840161032a565b6001600160a01b03838116600081815260666020908152604080832094871680845294825291829020805460ff191686151590811790915591519182527f17307eab39ab6107e8899845ad3d59bd9653f200f220920489ca2b5937696c31910160405180910390a3505050565b6001600160a01b038416610f535760405162461bcd60e51b815260040161032a9061226d565b336000610f5f856115d5565b90506000610f6c856115d5565b905060008681526065602090815260408083206001600160a01b038c16845290915290205485811015610fb15760405162461bcd60e51b815260040161032a906122b2565b60008781526065602090815260408083206001600160a01b038d8116855292528083208985039055908a16825281208054889290610ff0908490612312565b909155505060408051888152602081018890526001600160a01b03808b16928c821692918816917fc3d58168c5ae7397731d063d5bbf3d657854427343f4c083240f7aacaa2d0f62910160405180910390a4611050848a8a8a8a8a611620565b505050505050505050565b6001600160a01b03163b151590565b600054610100900460ff166110915760405162461bcd60e51b815260040161032a90612353565b6106e9816116e2565b600054610100900460ff166110c15760405162461bcd60e51b815260040161032a90612353565b6110c9611712565b6106e9600082611739565b6000816001600160a01b0316836001600160a01b031614806110fb57506110fb8284610782565b9392505050565b6001600160a01b0383166111645760405162461bcd60e51b815260206004820152602360248201527f455243313135353a206275726e2066726f6d20746865207a65726f206164647260448201526265737360e81b606482015260840161032a565b80518251146111855760405162461bcd60e51b815260040161032a90612225565b604080516020810190915260009081905233905b83518110156112905760008482815181106111b6576111b66120da565b6020026020010151905060008483815181106111d4576111d46120da565b60209081029190910181015160008481526065835260408082206001600160a01b038c1683529093529190912054909150818110156112615760405162461bcd60e51b8152602060048201526024808201527f455243313135353a206275726e20616d6f756e7420657863656564732062616c604482015263616e636560e01b606482015260840161032a565b60009283526065602090815260408085206001600160a01b038b16865290915290922091039055600101611199565b5060006001600160a01b0316846001600160a01b0316826001600160a01b03166000805160206125e983398151915286866040516112cf929190612325565b60405180910390a4604080516020810190915260009052610760565b60006001600160e01b03198216636cdb3d1360e11b148061131c57506001600160e01b031982166303a24d0760e21b145b8061035857506301ffc9a760e01b6001600160e01b0319831614610358565b60008072184f03e93ff9f4daa797ed6e38ed64bf6a1f0160401b831061137a5772184f03e93ff9f4daa797ed6e38ed64bf6a1f0160401b830492506040015b6904ee2d6d415b85acef8160201b83106113a4576904ee2d6d415b85acef8160201b830492506020015b662386f26fc1000083106113c257662386f26fc10000830492506010015b6305f5e10083106113da576305f5e100830492506008015b61271083106113ee57612710830492506004015b60648310611400576064830492506002015b600a83106103585760010192915050565b611423846001600160a01b031661105b565b156106b15760405163bc197c8160e01b81526001600160a01b0385169063bc197c819061145c908990899088908890889060040161239e565b6020604051808303816000875af1925050508015611497575060408051601f3d908101601f19168201909252611494918101906123fc565b60015b611543576114a3612419565b806308c379a0036114dc57506114b7612435565b806114c257506114de565b8060405162461bcd60e51b815260040161032a91906119de565b505b60405162461bcd60e51b815260206004820152603460248201527f455243313135353a207472616e7366657220746f206e6f6e2d455243313135356044820152732932b1b2b4bb32b91034b6b83632b6b2b73a32b960611b606482015260840161032a565b6001600160e01b0319811663bc197c8160e01b146115735760405162461bcd60e51b815260040161032a906124be565b50505050505050565b61158682826106f9565b6104cf5761159381611743565b61159e836020611755565b6040516020016115af929190612506565b60408051601f198184030181529082905262461bcd60e51b825261032a916004016119de565b6040805160018082528183019092526060916000919060208083019080368337019050509050828160008151811061160f5761160f6120da565b602090810291909101015292915050565b611632846001600160a01b031661105b565b156106b15760405163f23a6e6160e01b81526001600160a01b0385169063f23a6e619061166b9089908990889088908890600401612575565b6020604051808303816000875af19250505080156116a6575060408051601f3d908101601f191682019092526116a3918101906123fc565b60015b6116b2576114a3612419565b6001600160e01b0319811663f23a6e6160e01b146115735760405162461bcd60e51b815260040161032a906124be565b600054610100900460ff166117095760405162461bcd60e51b815260040161032a90612353565b6106e9816118f0565b600054610100900460ff166106f75760405162461bcd60e51b815260040161032a90612353565b6104cf8282610bf7565b60606103586001600160a01b03831660145b606060006117648360026125ba565b61176f906002612312565b6001600160401b0381111561178657611786611a0c565b6040519080825280601f01601f1916602001820160405280156117b0576020820181803683370190505b509050600360fc1b816000815181106117cb576117cb6120da565b60200101906001600160f81b031916908160001a905350600f60fb1b816001815181106117fa576117fa6120da565b60200101906001600160f81b031916908160001a905350600061181e8460026125ba565b611829906001612312565b90505b60018111156118a1576f181899199a1a9b1b9c1cb0b131b232b360811b85600f166010811061185d5761185d6120da565b1a60f81b828281518110611873576118736120da565b60200101906001600160f81b031916908160001a90535060049490941c9361189a816125d1565b905061182c565b5083156110fb5760405162461bcd60e51b815260206004820181905260248201527f537472696e67733a20686578206c656e67746820696e73756666696369656e74604482015260640161032a565b60676104cf8282612166565b80356001600160a01b038116811461191357600080fd5b919050565b6000806040838503121561192b57600080fd5b611934836118fc565b946020939093013593505050565b6001600160e01b0319811681146106e957600080fd5b60006020828403121561196a57600080fd5b81356110fb81611942565b60006020828403121561198757600080fd5b5035919050565b60005b838110156119a9578181015183820152602001611991565b50506000910152565b600081518084526119ca81602086016020860161198e565b601f01601f19169290920160200192915050565b6020815260006110fb60208301846119b2565b600060208284031215611a0357600080fd5b6110fb826118fc565b634e487b7160e01b600052604160045260246000fd5b601f8201601f191681016001600160401b0381118282101715611a4757611a47611a0c565b6040525050565b60006001600160401b03821115611a6757611a67611a0c565b5060051b60200190565b600082601f830112611a8257600080fd5b81356020611a8f82611a4e565b604051611a9c8282611a22565b80915083815260208101915060208460051b870101935086841115611ac057600080fd5b602086015b84811015611adc5780358352918301918301611ac5565b509695505050505050565b60006001600160401b03831115611b0057611b00611a0c565b604051611b17601f8501601f191660200182611a22565b809150838152848484011115611b2c57600080fd5b83836020830137600060208583010152509392505050565b600082601f830112611b5557600080fd5b6110fb83833560208501611ae7565b600080600080600060a08688031215611b7c57600080fd5b611b85866118fc565b9450611b93602087016118fc565b935060408601356001600160401b0380821115611baf57600080fd5b611bbb89838a01611a71565b94506060880135915080821115611bd157600080fd5b611bdd89838a01611a71565b93506080880135915080821115611bf357600080fd5b50611c0088828901611b44565b9150509295509295909350565b60008060408385031215611c2057600080fd5b82359150611c30602084016118fc565b90509250929050565b60008060408385031215611c4c57600080fd5b82356001600160401b0380821115611c6357600080fd5b818501915085601f830112611c7757600080fd5b81356020611c8482611a4e565b604051611c918282611a22565b83815260059390931b8501820192828101915089841115611cb157600080fd5b948201945b83861015611cd657611cc7866118fc565b82529482019490820190611cb6565b96505086013592505080821115611cec57600080fd5b50611cf985828601611a71565b9150509250929050565b60008151808452602080850194506020840160005b83811015611d3457815187529582019590820190600101611d18565b509495945050505050565b6020815260006110fb6020830184611d03565b60008060008060808587031215611d6857600080fd5b611d71856118fc565b9350602085013592506040850135915060608501356001600160401b03811115611d9a57600080fd5b611da687828801611b44565b91505092959194509250565b60008060408385031215611dc557600080fd5b611dce836118fc565b915060208301358015158114611de357600080fd5b809150509250929050565b60008060008060808587031215611e0457600080fd5b611e0d856118fc565b935060208501356001600160401b0380821115611e2957600080fd5b611e3588838901611a71565b94506040870135915080821115611e4b57600080fd5b611e5788838901611a71565b93506060870135915080821115611e6d57600080fd5b50611da687828801611b44565b60008060408385031215611e8d57600080fd5b611e96836118fc565b9150611c30602084016118fc565b600080600080600060a08688031215611ebc57600080fd5b611ec5866118fc565b9450611ed3602087016118fc565b9350604086013592506060860135915060808601356001600160401b03811115611efc57600080fd5b611c0088828901611b44565b600060208284031215611f1a57600080fd5b81356001600160401b03811115611f3057600080fd5b8201601f81018413611f4157600080fd5b611f5084823560208401611ae7565b949350505050565b600080600060608486031215611f6d57600080fd5b611f76846118fc565b925060208401356001600160401b0380821115611f9257600080fd5b611f9e87838801611a71565b93506040860135915080821115611fb457600080fd5b50611fc186828701611a71565b9150509250925092565b600181811c90821680611fdf57607f821691505b602082108103611fff57634e487b7160e01b600052602260045260246000fd5b50919050565b600080845461201381611fcb565b6001828116801561202b57600181146120405761206f565b60ff198416875282151583028701945061206f565b8860005260208060002060005b858110156120665781548a82015290840190820161204d565b50505082870194505b50505050835161208381836020880161198e565b01949350505050565b6020808252602e908201527f455243313135353a2063616c6c6572206973206e6f7420746f6b656e206f776e60408201526d195c881bdc88185c1c1c9bdd995960921b606082015260800190565b634e487b7160e01b600052603260045260246000fd5b6020808252601490820152735265737472696374656420746f2061646d696e7360601b604082015260600190565b601f821115610450576000816000526020600020601f850160051c810160208610156121475750805b601f850160051c820191505b818110156106b157828155600101612153565b81516001600160401b0381111561217f5761217f611a0c565b6121938161218d8454611fcb565b8461211e565b602080601f8311600181146121c857600084156121b05750858301515b600019600386901b1c1916600185901b1785556106b1565b600085815260208120601f198616915b828110156121f7578886015182559484019460019091019084016121d8565b50858210156122155787850151600019600388901b60f8161c191681555b5050505050600190811b01905550565b60208082526028908201527f455243313135353a2069647320616e6420616d6f756e7473206c656e677468206040820152670dad2e6dac2e8c6d60c31b606082015260800190565b60208082526025908201527f455243313135353a207472616e7366657220746f20746865207a65726f206164604082015264647265737360d81b606082015260800190565b6020808252602a908201527f455243313135353a20696e73756666696369656e742062616c616e636520666f60408201526939103a3930b739b332b960b11b606082015260800190565b634e487b7160e01b600052601160045260246000fd5b80820180821115610358576103586122fc565b6040815260006123386040830185611d03565b828103602084015261234a8185611d03565b95945050505050565b6020808252602b908201527f496e697469616c697a61626c653a20636f6e7472616374206973206e6f74206960408201526a6e697469616c697a696e6760a81b606082015260800190565b6001600160a01b0386811682528516602082015260a0604082018190526000906123ca90830186611d03565b82810360608401526123dc8186611d03565b905082810360808401526123f081856119b2565b98975050505050505050565b60006020828403121561240e57600080fd5b81516110fb81611942565b600060033d11156124325760046000803e5060005160e01c5b90565b600060443d10156124435790565b6040516003193d81016004833e81513d6001600160401b03808311602484018310171561247257505050505090565b828501915081518181111561248a5750505050505090565b843d87010160208285010111156124a45750505050505090565b6124b360208286010187611a22565b509095945050505050565b60208082526028908201527f455243313135353a204552433131353552656365697665722072656a656374656040820152676420746f6b656e7360c01b606082015260800190565b76020b1b1b2b9b9a1b7b73a3937b61d1030b1b1b7bab73a1604d1b81526000835161253881601785016020880161198e565b7001034b99036b4b9b9b4b733903937b6329607d1b601791840191820152835161256981602884016020880161198e565b01602801949350505050565b6001600160a01b03868116825285166020820152604081018490526060810183905260a0608082018190526000906125af908301846119b2565b979650505050505050565b8082028115828204841417610358576103586122fc565b6000816125e0576125e06122fc565b50600019019056fe4a39dc06d4c0dbc64b70af90fd698a233a518aa5d07e595d983b8c0526c8f7fba264697066735822122033fecb2a1299b5e313926b153172f9d03f06daf65d7f205861fb1d6aaf0f394b64736f6c63430008180033",
  "linkReferences": {},
  "deployedLinkReferences": {}
}