{
  "address": "0x0a3C20CA501BFc042e1273fC548a101EA2d796F6",
  "_format": "hh-sol-artifact-1",
  "contractName": "BridgeTowerNftUpgradeableERC1155",
  "sourceName": "contracts/BridgeTowerNftUpgradeableERC1155.sol",
  "abi": [
    {
      "anonymous": false,
      "inputs": [
        {
          "indexed": true,
          "internalType": "address",
          "name": "account",
          "type": "address"
        },
        {
          "indexed": true,
          "internalType": "address",
          "name": "operator",
          "type": "address"
        },
        {
          "indexed": false,
          "internalType": "bool",
          "name": "approved",
          "type": "bool"
        }
      ],
      "name": "ApprovalForAll",
      "type": "event"
    },
    {
      "anonymous": false,
      "inputs": [
        {
          "indexed": false,
          "internalType": "uint8",
          "name": "version",
          "type": "uint8"
        }
      ],
      "name": "Initialized",
      "type": "event"
    },
    {
      "anonymous": false,
      "inputs": [
        {
          "indexed": true,
          "internalType": "bytes32",
          "name": "role",
          "type": "bytes32"
        },
        {
          "indexed": true,
          "internalType": "bytes32",
          "name": "previousAdminRole",
          "type": "bytes32"
        },
        {
          "indexed": true,
          "internalType": "bytes32",
          "name": "newAdminRole",
          "type": "bytes32"
        }
      ],
      "name": "RoleAdminChanged",
      "type": "event"
    },
    {
      "anonymous": false,
      "inputs": [
        {
          "indexed": true,
          "internalType": "bytes32",
          "name": "role",
          "type": "bytes32"
        },
        {
          "indexed": true,
          "internalType": "address",
          "name": "account",
          "type": "address"
        },
        {
          "indexed": true,
          "internalType": "address",
          "name": "sender",
          "type": "address"
        }
      ],
      "name": "RoleGranted",
      "type": "event"
    },
    {
      "anonymous": false,
      "inputs": [
        {
          "indexed": true,
          "internalType": "bytes32",
          "name": "role",
          "type": "bytes32"
        },
        {
          "indexed": true,
          "internalType": "address",
          "name": "account",
          "type": "address"
        },
        {
          "indexed": true,
          "internalType": "address",
          "name": "sender",
          "type": "address"
        }
      ],
      "name": "RoleRevoked",
      "type": "event"
    },
    {
      "anonymous": false,
      "inputs": [
        {
          "indexed": true,
          "internalType": "address",
          "name": "operator",
          "type": "address"
        },
        {
          "indexed": true,
          "internalType": "address",
          "name": "from",
          "type": "address"
        },
        {
          "indexed": true,
          "internalType": "address",
          "name": "to",
          "type": "address"
        },
        {
          "indexed": false,
          "internalType": "uint256[]",
          "name": "ids",
          "type": "uint256[]"
        },
        {
          "indexed": false,
          "internalType": "uint256[]",
          "name": "values",
          "type": "uint256[]"
        }
      ],
      "name": "TransferBatch",
      "type": "event"
    },
    {
      "anonymous": false,
      "inputs": [
        {
          "indexed": true,
          "internalType": "address",
          "name": "operator",
          "type": "address"
        },
        {
          "indexed": true,
          "internalType": "address",
          "name": "from",
          "type": "address"
        },
        {
          "indexed": true,
          "internalType": "address",
          "name": "to",
          "type": "address"
        },
        {
          "indexed": false,
          "internalType": "uint256",
          "name": "id",
          "type": "uint256"
        },
        {
          "indexed": false,
          "internalType": "uint256",
          "name": "value",
          "type": "uint256"
        }
      ],
      "name": "TransferSingle",
      "type": "event"
    },
    {
      "anonymous": false,
      "inputs": [
        {
          "indexed": false,
          "internalType": "string",
          "name": "value",
          "type": "string"
        },
        {
          "indexed": true,
          "internalType": "uint256",
          "name": "id",
          "type": "uint256"
        }
      ],
      "name": "URI",
      "type": "event"
    },
    {
      "inputs": [],
      "name": "DEFAULT_ADMIN_ROLE",
      "outputs": [
        {
          "internalType": "bytes32",
          "name": "",
          "type": "bytes32"
        }
      ],
      "stateMutability": "view",
      "type": "function"
    },
    {
      "inputs": [
        {
          "internalType": "address",
          "name": "account",
          "type": "address"
        }
      ],
      "name": "addAdmin",
      "outputs": [],
      "stateMutability": "nonpayable",
      "type": "function"
    },
    {
      "inputs": [
        {
          "internalType": "address",
          "name": "account",
          "type": "address"
        },
        {
          "internalType": "uint256",
          "name": "id",
          "type": "uint256"
        }
      ],
      "name": "balanceOf",
      "outputs": [
        {
          "internalType": "uint256",
          "name": "",
          "type": "uint256"
        }
      ],
      "stateMutability": "view",
      "type": "function"
    },
    {
      "inputs": [
        {
          "internalType": "address[]",
          "name": "accounts",
          "type": "address[]"
        },
        {
          "internalType": "uint256[]",
          "name": "ids",
          "type": "uint256[]"
        }
      ],
      "name": "balanceOfBatch",
      "outputs": [
        {
          "internalType": "uint256[]",
          "name": "",
          "type": "uint256[]"
        }
      ],
      "stateMutability": "view",
      "type": "function"
    },
    {
      "inputs": [
        {
          "internalType": "address",
          "name": "from",
          "type": "address"
        },
        {
          "internalType": "uint256[]",
          "name": "ids",
          "type": "uint256[]"
        },
        {
          "internalType": "uint256[]",
          "name": "amounts",
          "type": "uint256[]"
        }
      ],
      "name": "batchBurn",
      "outputs": [],
      "stateMutability": "nonpayable",
      "type": "function"
    },
    {
      "inputs": [
        {
          "internalType": "address",
          "name": "to",
          "type": "address"
        },
        {
          "internalType": "uint256[]",
          "name": "ids",
          "type": "uint256[]"
        },
        {
          "internalType": "uint256[]",
          "name": "amounts",
          "type": "uint256[]"
        },
        {
          "internalType": "bytes",
          "name": "data",
          "type": "bytes"
        }
      ],
      "name": "batchMint",
      "outputs": [],
      "stateMutability": "nonpayable",
      "type": "function"
    },
    {
      "inputs": [
        {
          "internalType": "address",
          "name": "to",
          "type": "address"
        },
        {
          "internalType": "uint256",
          "name": "numberOfTokens",
          "type": "uint256"
        },
        {
          "internalType": "uint256",
          "name": "amount",
          "type": "uint256"
        },
        {
          "internalType": "bytes",
          "name": "data",
          "type": "bytes"
        }
      ],
      "name": "batchMintToSingleAddress",
      "outputs": [],
      "stateMutability": "nonpayable",
      "type": "function"
    },
    {
      "inputs": [
        {
          "internalType": "bytes32",
          "name": "role",
          "type": "bytes32"
        }
      ],
      "name": "getRoleAdmin",
      "outputs": [
        {
          "internalType": "bytes32",
          "name": "",
          "type": "bytes32"
        }
      ],
      "stateMutability": "view",
      "type": "function"
    },
    {
      "inputs": [
        {
          "internalType": "bytes32",
          "name": "role",
          "type": "bytes32"
        },
        {
          "internalType": "address",
          "name": "account",
          "type": "address"
        }
      ],
      "name": "grantRole",
      "outputs": [],
      "stateMutability": "nonpayable",
      "type": "function"
    },
    {
      "inputs": [
        {
          "internalType": "bytes32",
          "name": "role",
          "type": "bytes32"
        },
        {
          "internalType": "address",
          "name": "account",
          "type": "address"
        }
      ],
      "name": "hasRole",
      "outputs": [
        {
          "internalType": "bool",
          "name": "",
          "type": "bool"
        }
      ],
      "stateMutability": "view",
      "type": "function"
    },
    {
      "inputs": [
        {
          "internalType": "string",
          "name": "baseURI",
          "type": "string"
        }
      ],
      "name": "initialize",
      "outputs": [],
      "stateMutability": "nonpayable",
      "type": "function"
    },
    {
      "inputs": [
        {
          "internalType": "address",
          "name": "account",
          "type": "address"
        }
      ],
      "name": "isAdmin",
      "outputs": [
        {
          "internalType": "bool",
          "name": "",
          "type": "bool"
        }
      ],
      "stateMutability": "view",
      "type": "function"
    },
    {
      "inputs": [
        {
          "internalType": "address",
          "name": "account",
          "type": "address"
        },
        {
          "internalType": "address",
          "name": "operator",
          "type": "address"
        }
      ],
      "name": "isApprovedForAll",
      "outputs": [
        {
          "internalType": "bool",
          "name": "",
          "type": "bool"
        }
      ],
      "stateMutability": "view",
      "type": "function"
    },
    {
      "inputs": [],
      "name": "renounceAdmin",
      "outputs": [],
      "stateMutability": "nonpayable",
      "type": "function"
    },
    {
      "inputs": [
        {
          "internalType": "bytes32",
          "name": "role",
          "type": "bytes32"
        },
        {
          "internalType": "address",
          "name": "account",
          "type": "address"
        }
      ],
      "name": "renounceRole",
      "outputs": [],
      "stateMutability": "nonpayable",
      "type": "function"
    },
    {
      "inputs": [
        {
          "internalType": "bytes32",
          "name": "role",
          "type": "bytes32"
        },
        {
          "internalType": "address",
          "name": "account",
          "type": "address"
        }
      ],
      "name": "revokeRole",
      "outputs": [],
      "stateMutability": "nonpayable",
      "type": "function"
    },
    {
      "inputs": [
        {
          "internalType": "address",
          "name": "from",
          "type": "address"
        },
        {
          "internalType": "address",
          "name": "to",
          "type": "address"
        },
        {
          "internalType": "uint256[]",
          "name": "ids",
          "type": "uint256[]"
        },
        {
          "internalType": "uint256[]",
          "name": "amounts",
          "type": "uint256[]"
        },
        {
          "internalType": "bytes",
          "name": "data",
          "type": "bytes"
        }
      ],
      "name": "safeBatchTransferFrom",
      "outputs": [],
      "stateMutability": "nonpayable",
      "type": "function"
    },
    {
      "inputs": [
        {
          "internalType": "address",
          "name": "from",
          "type": "address"
        },
        {
          "internalType": "address",
          "name": "to",
          "type": "address"
        },
        {
          "internalType": "uint256",
          "name": "id",
          "type": "uint256"
        },
        {
          "internalType": "uint256",
          "name": "amount",
          "type": "uint256"
        },
        {
          "internalType": "bytes",
          "name": "data",
          "type": "bytes"
        }
      ],
      "name": "safeTransferFrom",
      "outputs": [],
      "stateMutability": "nonpayable",
      "type": "function"
    },
    {
      "inputs": [
        {
          "internalType": "address",
          "name": "operator",
          "type": "address"
        },
        {
          "internalType": "bool",
          "name": "approved",
          "type": "bool"
        }
      ],
      "name": "setApprovalForAll",
      "outputs": [],
      "stateMutability": "nonpayable",
      "type": "function"
    },
    {
      "inputs": [
        {
          "internalType": "string",
          "name": "newuri",
          "type": "string"
        }
      ],
      "name": "setURI",
      "outputs": [],
      "stateMutability": "nonpayable",
      "type": "function"
    },
    {
      "inputs": [
        {
          "internalType": "bytes4",
          "name": "interfaceId",
          "type": "bytes4"
        }
      ],
      "name": "supportsInterface",
      "outputs": [
        {
          "internalType": "bool",
          "name": "",
          "type": "bool"
        }
      ],
      "stateMutability": "view",
      "type": "function"
    },
    {
      "inputs": [
        {
          "internalType": "uint256",
          "name": "",
          "type": "uint256"
        }
      ],
      "name": "uri",
      "outputs": [
        {
          "internalType": "string",
          "name": "",
          "type": "string"
        }
      ],
      "stateMutability": "view",
      "type": "function"
    }
  ],
  "bytecode": "0x608060405234801561001057600080fd5b5061253c806100206000396000f3fe608060405234801561001057600080fd5b50600436106101115760003560e01c8062fdd58e1461011657806301ffc9a71461013c57806302fe53051461015f5780630e89341c14610174578063248a9ca31461019457806324d7806c146101a75780632eb2c2d6146101ba5780632f2ff15d146101cd57806336568abe146101e05780634e1273f4146101f3578063615ea8351461021357806370480275146102265780638bad0c0a1461023957806391d1485414610241578063a217fddf14610254578063a22cb4651461025c578063b48ab8b61461026f578063d547741f14610282578063e985e9c514610295578063f242432a146102a8578063f62d1888146102bb578063f6eb127a146102ce575b600080fd5b610129610124366004611884565b6102e1565b6040519081526020015b60405180910390f35b61014f61014a3660046118c4565b61037c565b6040519015158152602001610133565b61017261016d366004611980565b610387565b005b6101876101823660046119d0565b6103b8565b6040516101339190611a39565b6101296101a23660046119d0565b61044c565b61014f6101b5366004611a4c565b610461565b6101726101c8366004611b20565b61046d565b6101726101db366004611bc9565b6104b9565b6101726101ee366004611bc9565b6104da565b610206610201366004611bf5565b610558565b6040516101339190611cfb565b610172610221366004611d0e565b610679565b610172610234366004611a4c565b6107a6565b6101726107d6565b61014f61024f366004611bc9565b6107e3565b610129600081565b61017261026a366004611d6e565b61080e565b61017261027d366004611daa565b610819565b610172610290366004611bc9565b610850565b61014f6102a3366004611e36565b61086c565b6101726102b6366004611e60565b61089a565b6101726102c9366004611980565b6108df565b6101726102dc366004611ec4565b610a01565b60006001600160a01b0383166103515760405162461bcd60e51b815260206004820152602a60248201527f455243313135353a2061646472657373207a65726f206973206e6f742061207660448201526930b634b21037bbb732b960b11b60648201526084015b60405180910390fd5b5060008181526065602090815260408083206001600160a01b03861684529091529020545b92915050565b600061037682610a95565b61039033610461565b6103ac5760405162461bcd60e51b815260040161034890611f37565b6103b581610aba565b50565b6060606780546103c790611f65565b80601f01602080910402602001604051908101604052809291908181526020018280546103f390611f65565b80156104405780601f1061041557610100808354040283529160200191610440565b820191906000526020600020905b81548152906001019060200180831161042357829003601f168201915b50505050509050919050565b60009081526097602052604090206001015490565b600061037681836107e3565b6001600160a01b0385163314806104895750610489853361086c565b6104a55760405162461bcd60e51b815260040161034890611f9f565b6104b28585858585610ac6565b5050505050565b6104c28261044c565b6104cb81610c44565b6104d58383610c4e565b505050565b6001600160a01b038116331461054a5760405162461bcd60e51b815260206004820152602f60248201527f416363657373436f6e74726f6c3a2063616e206f6e6c792072656e6f756e636560448201526e103937b632b9903337b91039b2b63360891b6064820152608401610348565b6105548282610cd4565b5050565b606081518351146105bd5760405162461bcd60e51b815260206004820152602960248201527f455243313135353a206163636f756e747320616e6420696473206c656e677468604482015268040dad2e6dac2e8c6d60bb1b6064820152608401610348565b600083516001600160401b038111156105d8576105d86118e1565b604051908082528060200260200182016040528015610601578160200160208202803683370190505b50905060005b84518110156106715761064c85828151811061062557610625611fed565b602002602001015185838151811061063f5761063f611fed565b60200260200101516102e1565b82828151811061065e5761065e611fed565b6020908102919091010152600101610607565b509392505050565b61068233610461565b61069e5760405162461bcd60e51b815260040161034890611f37565b6000836001600160401b038111156106b8576106b86118e1565b6040519080825280602002602001820160405280156106e1578160200160208202803683370190505b5090506000846001600160401b038111156106fe576106fe6118e1565b604051908082528060200260200182016040528015610727578160200160208202803683370190505b50905060005b858110156107915760c95483828151811061074a5761074a611fed565b6020026020010181815250508482828151811061076957610769611fed565b602090810291909101015260c9805490600061078483612019565b909155505060010161072d565b5061079e86838386610d3b565b505050505050565b6107af33610461565b6107cb5760405162461bcd60e51b815260040161034890611f37565b6103b56000826104b9565b6107e16000336104da565b565b60009182526097602090815260408084206001600160a01b0393909316845291905290205460ff1690565b610554338383610ea4565b61082233610461565b61083e5760405162461bcd60e51b815260040161034890611f37565b61084a84848484610d3b565b50505050565b6108598261044c565b61086281610c44565b6104d58383610cd4565b6001600160a01b03918216600090815260666020908152604080832093909416825291909152205460ff1690565b6001600160a01b0385163314806108b657506108b6853361086c565b6108d25760405162461bcd60e51b815260040161034890611f9f565b6104b28585858585610f84565b600054610100900460ff16158080156108ff5750600054600160ff909116105b80610920575061090e306110b2565b158015610920575060005460ff166001145b6109835760405162461bcd60e51b815260206004820152602e60248201527f496e697469616c697a61626c653a20636f6e747261637420697320616c72656160448201526d191e481a5b9a5d1a585b1a5e995960921b6064820152608401610348565b6000805460ff1916600117905580156109a6576000805461ff0019166101001790555b6109af826110c1565b6109b8336110f1565b8015610554576000805461ff0019169055604051600181527f7f26b83ff96e1f2b6a682f133852f6798a09c465da95921460cefb38474024989060200160405180910390a15050565b610a0b338461112b565b80610a1a5750610a1a33610461565b610a8a5760405162461bcd60e51b815260206004820152603b60248201527f455243313135354275726e61626c653a2063616c6c6572206973206e6f74206f60448201527a3bb732b9103737b91030b8383937bb32b2103737b91030b236b4b760291b6064820152608401610348565b6104d5838383611159565b60006001600160e01b03198216637965db0b60e01b1480610376575061037682611342565b6067610554828261207a565b8151835114610ae75760405162461bcd60e51b815260040161034890612139565b6001600160a01b038416610b0d5760405162461bcd60e51b815260040161034890612181565b3360005b8451811015610bf0576000858281518110610b2e57610b2e611fed565b602002602001015190506000858381518110610b4c57610b4c611fed565b60209081029190910181015160008481526065835260408082206001600160a01b038e168352909352919091205490915081811015610b9d5760405162461bcd60e51b8152600401610348906121c6565b60008381526065602090815260408083206001600160a01b038e8116855292528083208585039055908b16825281208054849290610bdc908490612210565b909155505060019093019250610b11915050565b50846001600160a01b0316866001600160a01b0316826001600160a01b03166000805160206124e78339815191528787604051610c2e929190612223565b60405180910390a461079e818787878787611392565b6103b581336114fd565b610c5882826107e3565b6105545760008281526097602090815260408083206001600160a01b03851684529091529020805460ff19166001179055610c903390565b6001600160a01b0316816001600160a01b0316837f2f8788117e7eff1d82e926ec794901d17c78024a50270940304540a733656f0d60405160405180910390a45050565b610cde82826107e3565b156105545760008281526097602090815260408083206001600160a01b0385168085529252808320805460ff1916905551339285917ff6391f5c32d9c69d2a47ea670b442974b53935d1edc7fd64eb21e047a839171b9190a45050565b6001600160a01b038416610d9b5760405162461bcd60e51b815260206004820152602160248201527f455243313135353a206d696e7420746f20746865207a65726f206164647265736044820152607360f81b6064820152608401610348565b8151835114610dbc5760405162461bcd60e51b815260040161034890612139565b3360005b8451811015610e4e57838181518110610ddb57610ddb611fed565b602002602001015160656000878481518110610df957610df9611fed565b602002602001015181526020019081526020016000206000886001600160a01b03166001600160a01b031681526020019081526020016000206000828254610e419190612210565b9091555050600101610dc0565b50846001600160a01b031660006001600160a01b0316826001600160a01b03166000805160206124e78339815191528787604051610e8d929190612223565b60405180910390a46104b281600087878787611392565b816001600160a01b0316836001600160a01b031603610f175760405162461bcd60e51b815260206004820152602960248201527f455243313135353a2073657474696e6720617070726f76616c20737461747573604482015268103337b91039b2b63360b91b6064820152608401610348565b6001600160a01b03838116600081815260666020908152604080832094871680845294825291829020805460ff191686151590811790915591519182527f17307eab39ab6107e8899845ad3d59bd9653f200f220920489ca2b5937696c31910160405180910390a3505050565b6001600160a01b038416610faa5760405162461bcd60e51b815260040161034890612181565b336000610fb685611556565b90506000610fc385611556565b905060008681526065602090815260408083206001600160a01b038c168452909152902054858110156110085760405162461bcd60e51b8152600401610348906121c6565b60008781526065602090815260408083206001600160a01b038d8116855292528083208985039055908a16825281208054889290611047908490612210565b909155505060408051888152602081018890526001600160a01b03808b16928c821692918816917fc3d58168c5ae7397731d063d5bbf3d657854427343f4c083240f7aacaa2d0f62910160405180910390a46110a7848a8a8a8a8a6115a1565b505050505050505050565b6001600160a01b03163b151590565b600054610100900460ff166110e85760405162461bcd60e51b815260040161034890612251565b6103b581611663565b600054610100900460ff166111185760405162461bcd60e51b815260040161034890612251565b61112061168a565b6103b56000826116b1565b6000816001600160a01b0316836001600160a01b031614806111525750611152828461086c565b9392505050565b6001600160a01b0383166111bb5760405162461bcd60e51b815260206004820152602360248201527f455243313135353a206275726e2066726f6d20746865207a65726f206164647260448201526265737360e81b6064820152608401610348565b80518251146111dc5760405162461bcd60e51b815260040161034890612139565b604080516020810190915260009081905233905b83518110156112e757600084828151811061120d5761120d611fed565b60200260200101519050600084838151811061122b5761122b611fed565b60209081029190910181015160008481526065835260408082206001600160a01b038c1683529093529190912054909150818110156112b85760405162461bcd60e51b8152602060048201526024808201527f455243313135353a206275726e20616d6f756e7420657863656564732062616c604482015263616e636560e01b6064820152608401610348565b60009283526065602090815260408085206001600160a01b038b168652909152909220910390556001016111f0565b5060006001600160a01b0316846001600160a01b0316826001600160a01b03166000805160206124e78339815191528686604051611326929190612223565b60405180910390a460408051602081019091526000905261084a565b60006001600160e01b03198216636cdb3d1360e11b148061137357506001600160e01b031982166303a24d0760e21b145b8061037657506301ffc9a760e01b6001600160e01b0319831614610376565b6113a4846001600160a01b03166110b2565b1561079e5760405163bc197c8160e01b81526001600160a01b0385169063bc197c81906113dd908990899088908890889060040161229c565b6020604051808303816000875af1925050508015611418575060408051601f3d908101601f19168201909252611415918101906122fa565b60015b6114c457611424612317565b806308c379a00361145d5750611438612333565b80611443575061145f565b8060405162461bcd60e51b81526004016103489190611a39565b505b60405162461bcd60e51b815260206004820152603460248201527f455243313135353a207472616e7366657220746f206e6f6e2d455243313135356044820152732932b1b2b4bb32b91034b6b83632b6b2b73a32b960611b6064820152608401610348565b6001600160e01b0319811663bc197c8160e01b146114f45760405162461bcd60e51b8152600401610348906123bc565b50505050505050565b61150782826107e3565b61055457611514816116bb565b61151f8360206116cd565b604051602001611530929190612404565b60408051601f198184030181529082905262461bcd60e51b825261034891600401611a39565b6040805160018082528183019092526060916000919060208083019080368337019050509050828160008151811061159057611590611fed565b602090810291909101015292915050565b6115b3846001600160a01b03166110b2565b1561079e5760405163f23a6e6160e01b81526001600160a01b0385169063f23a6e61906115ec9089908990889088908890600401612473565b6020604051808303816000875af1925050508015611627575060408051601f3d908101601f19168201909252611624918101906122fa565b60015b61163357611424612317565b6001600160e01b0319811663f23a6e6160e01b146114f45760405162461bcd60e51b8152600401610348906123bc565b600054610100900460ff166103ac5760405162461bcd60e51b815260040161034890612251565b600054610100900460ff166107e15760405162461bcd60e51b815260040161034890612251565b6105548282610c4e565b60606103766001600160a01b03831660145b606060006116dc8360026124b8565b6116e7906002612210565b6001600160401b038111156116fe576116fe6118e1565b6040519080825280601f01601f191660200182016040528015611728576020820181803683370190505b509050600360fc1b8160008151811061174357611743611fed565b60200101906001600160f81b031916908160001a905350600f60fb1b8160018151811061177257611772611fed565b60200101906001600160f81b031916908160001a90535060006117968460026124b8565b6117a1906001612210565b90505b6001811115611819576f181899199a1a9b1b9c1cb0b131b232b360811b85600f16601081106117d5576117d5611fed565b1a60f81b8282815181106117eb576117eb611fed565b60200101906001600160f81b031916908160001a90535060049490941c93611812816124cf565b90506117a4565b5083156111525760405162461bcd60e51b815260206004820181905260248201527f537472696e67733a20686578206c656e67746820696e73756666696369656e746044820152606401610348565b80356001600160a01b038116811461187f57600080fd5b919050565b6000806040838503121561189757600080fd5b6118a083611868565b946020939093013593505050565b6001600160e01b0319811681146103b557600080fd5b6000602082840312156118d657600080fd5b8135611152816118ae565b634e487b7160e01b600052604160045260246000fd5b601f8201601f191681016001600160401b038111828210171561191c5761191c6118e1565b6040525050565b60006001600160401b0383111561193c5761193c6118e1565b604051611953601f8501601f1916602001826118f7565b80915083815284848401111561196857600080fd5b83836020830137600060208583010152509392505050565b60006020828403121561199257600080fd5b81356001600160401b038111156119a857600080fd5b8201601f810184136119b957600080fd5b6119c884823560208401611923565b949350505050565b6000602082840312156119e257600080fd5b5035919050565b60005b83811015611a045781810151838201526020016119ec565b50506000910152565b60008151808452611a258160208601602086016119e9565b601f01601f19169290920160200192915050565b6020815260006111526020830184611a0d565b600060208284031215611a5e57600080fd5b61115282611868565b60006001600160401b03821115611a8057611a806118e1565b5060051b60200190565b600082601f830112611a9b57600080fd5b81356020611aa882611a67565b604051611ab582826118f7565b80915083815260208101915060208460051b870101935086841115611ad957600080fd5b602086015b84811015611af55780358352918301918301611ade565b509695505050505050565b600082601f830112611b1157600080fd5b61115283833560208501611923565b600080600080600060a08688031215611b3857600080fd5b611b4186611868565b9450611b4f60208701611868565b935060408601356001600160401b0380821115611b6b57600080fd5b611b7789838a01611a8a565b94506060880135915080821115611b8d57600080fd5b611b9989838a01611a8a565b93506080880135915080821115611baf57600080fd5b50611bbc88828901611b00565b9150509295509295909350565b60008060408385031215611bdc57600080fd5b82359150611bec60208401611868565b90509250929050565b60008060408385031215611c0857600080fd5b82356001600160401b0380821115611c1f57600080fd5b818501915085601f830112611c3357600080fd5b81356020611c4082611a67565b604051611c4d82826118f7565b83815260059390931b8501820192828101915089841115611c6d57600080fd5b948201945b83861015611c9257611c8386611868565b82529482019490820190611c72565b96505086013592505080821115611ca857600080fd5b50611cb585828601611a8a565b9150509250929050565b60008151808452602080850194506020840160005b83811015611cf057815187529582019590820190600101611cd4565b509495945050505050565b6020815260006111526020830184611cbf565b60008060008060808587031215611d2457600080fd5b611d2d85611868565b9350602085013592506040850135915060608501356001600160401b03811115611d5657600080fd5b611d6287828801611b00565b91505092959194509250565b60008060408385031215611d8157600080fd5b611d8a83611868565b915060208301358015158114611d9f57600080fd5b809150509250929050565b60008060008060808587031215611dc057600080fd5b611dc985611868565b935060208501356001600160401b0380821115611de557600080fd5b611df188838901611a8a565b94506040870135915080821115611e0757600080fd5b611e1388838901611a8a565b93506060870135915080821115611e2957600080fd5b50611d6287828801611b00565b60008060408385031215611e4957600080fd5b611e5283611868565b9150611bec60208401611868565b600080600080600060a08688031215611e7857600080fd5b611e8186611868565b9450611e8f60208701611868565b9350604086013592506060860135915060808601356001600160401b03811115611eb857600080fd5b611bbc88828901611b00565b600080600060608486031215611ed957600080fd5b611ee284611868565b925060208401356001600160401b0380821115611efe57600080fd5b611f0a87838801611a8a565b93506040860135915080821115611f2057600080fd5b50611f2d86828701611a8a565b9150509250925092565b6020808252601490820152735265737472696374656420746f2061646d696e7360601b604082015260600190565b600181811c90821680611f7957607f821691505b602082108103611f9957634e487b7160e01b600052602260045260246000fd5b50919050565b6020808252602e908201527f455243313135353a2063616c6c6572206973206e6f7420746f6b656e206f776e60408201526d195c881bdc88185c1c1c9bdd995960921b606082015260800190565b634e487b7160e01b600052603260045260246000fd5b634e487b7160e01b600052601160045260246000fd5b60006001820161202b5761202b612003565b5060010190565b601f8211156104d5576000816000526020600020601f850160051c8101602086101561205b5750805b601f850160051c820191505b8181101561079e57828155600101612067565b81516001600160401b03811115612093576120936118e1565b6120a7816120a18454611f65565b84612032565b602080601f8311600181146120dc57600084156120c45750858301515b600019600386901b1c1916600185901b17855561079e565b600085815260208120601f198616915b8281101561210b578886015182559484019460019091019084016120ec565b50858210156121295787850151600019600388901b60f8161c191681555b5050505050600190811b01905550565b60208082526028908201527f455243313135353a2069647320616e6420616d6f756e7473206c656e677468206040820152670dad2e6dac2e8c6d60c31b606082015260800190565b60208082526025908201527f455243313135353a207472616e7366657220746f20746865207a65726f206164604082015264647265737360d81b606082015260800190565b6020808252602a908201527f455243313135353a20696e73756666696369656e742062616c616e636520666f60408201526939103a3930b739b332b960b11b606082015260800190565b8082018082111561037657610376612003565b6040815260006122366040830185611cbf565b82810360208401526122488185611cbf565b95945050505050565b6020808252602b908201527f496e697469616c697a61626c653a20636f6e7472616374206973206e6f74206960408201526a6e697469616c697a696e6760a81b606082015260800190565b6001600160a01b0386811682528516602082015260a0604082018190526000906122c890830186611cbf565b82810360608401526122da8186611cbf565b905082810360808401526122ee8185611a0d565b98975050505050505050565b60006020828403121561230c57600080fd5b8151611152816118ae565b600060033d11156123305760046000803e5060005160e01c5b90565b600060443d10156123415790565b6040516003193d81016004833e81513d6001600160401b03808311602484018310171561237057505050505090565b82850191508151818111156123885750505050505090565b843d87010160208285010111156123a25750505050505090565b6123b1602082860101876118f7565b509095945050505050565b60208082526028908201527f455243313135353a204552433131353552656365697665722072656a656374656040820152676420746f6b656e7360c01b606082015260800190565b76020b1b1b2b9b9a1b7b73a3937b61d1030b1b1b7bab73a1604d1b8152600083516124368160178501602088016119e9565b7001034b99036b4b9b9b4b733903937b6329607d1b60179184019182015283516124678160288401602088016119e9565b01602801949350505050565b6001600160a01b03868116825285166020820152604081018490526060810183905260a0608082018190526000906124ad90830184611a0d565b979650505050505050565b808202811582820484141761037657610376612003565b6000816124de576124de612003565b50600019019056fe4a39dc06d4c0dbc64b70af90fd698a233a518aa5d07e595d983b8c0526c8f7fba264697066735822122048b3242099c7f3e83e81d40e6e8ecda51b619bcb1b5a51537ec5de2f963967e464736f6c63430008180033",
  "linkReferences": {},
  "deployedLinkReferences": {}
}