{
  "address": "0x698ca34160962dd9826E25ecb1b1b73d756b71b5",
  "_format": "hh-sol-artifact-1",
  "contractName": "BridgeTowerNftUpgradeable",
  "sourceName": "contracts/BridgeTowerNftUpgradeable.sol",
  "abi": [
    {
      "anonymous": false,
      "inputs": [
        {
          "indexed": true,
          "internalType": "address",
          "name": "owner",
          "type": "address"
        },
        {
          "indexed": true,
          "internalType": "address",
          "name": "approved",
          "type": "address"
        },
        {
          "indexed": true,
          "internalType": "uint256",
          "name": "tokenId",
          "type": "uint256"
        }
      ],
      "name": "Approval",
      "type": "event"
    },
    {
      "anonymous": false,
      "inputs": [
        {
          "indexed": true,
          "internalType": "address",
          "name": "owner",
          "type": "address"
        },
        {
          "indexed": true,
          "internalType": "address",
          "name": "operator",
          "type": "address"
        },
        {
          "indexed": false,
          "internalType": "bool",
          "name": "approved",
          "type": "bool"
        }
      ],
      "name": "ApprovalForAll",
      "type": "event"
    },
    {
      "anonymous": false,
      "inputs": [
        {
          "indexed": false,
          "internalType": "uint8",
          "name": "version",
          "type": "uint8"
        }
      ],
      "name": "Initialized",
      "type": "event"
    },
    {
      "anonymous": false,
      "inputs": [
        {
          "indexed": true,
          "internalType": "bytes32",
          "name": "role",
          "type": "bytes32"
        },
        {
          "indexed": true,
          "internalType": "bytes32",
          "name": "previousAdminRole",
          "type": "bytes32"
        },
        {
          "indexed": true,
          "internalType": "bytes32",
          "name": "newAdminRole",
          "type": "bytes32"
        }
      ],
      "name": "RoleAdminChanged",
      "type": "event"
    },
    {
      "anonymous": false,
      "inputs": [
        {
          "indexed": true,
          "internalType": "bytes32",
          "name": "role",
          "type": "bytes32"
        },
        {
          "indexed": true,
          "internalType": "address",
          "name": "account",
          "type": "address"
        },
        {
          "indexed": true,
          "internalType": "address",
          "name": "sender",
          "type": "address"
        }
      ],
      "name": "RoleGranted",
      "type": "event"
    },
    {
      "anonymous": false,
      "inputs": [
        {
          "indexed": true,
          "internalType": "bytes32",
          "name": "role",
          "type": "bytes32"
        },
        {
          "indexed": true,
          "internalType": "address",
          "name": "account",
          "type": "address"
        },
        {
          "indexed": true,
          "internalType": "address",
          "name": "sender",
          "type": "address"
        }
      ],
      "name": "RoleRevoked",
      "type": "event"
    },
    {
      "anonymous": false,
      "inputs": [
        {
          "indexed": true,
          "internalType": "address",
          "name": "from",
          "type": "address"
        },
        {
          "indexed": true,
          "internalType": "address",
          "name": "to",
          "type": "address"
        },
        {
          "indexed": true,
          "internalType": "uint256",
          "name": "tokenId",
          "type": "uint256"
        }
      ],
      "name": "Transfer",
      "type": "event"
    },
    {
      "inputs": [],
      "name": "DEFAULT_ADMIN_ROLE",
      "outputs": [
        {
          "internalType": "bytes32",
          "name": "",
          "type": "bytes32"
        }
      ],
      "stateMutability": "view",
      "type": "function"
    },
    {
      "inputs": [
        {
          "internalType": "address",
          "name": "account",
          "type": "address"
        }
      ],
      "name": "addAdmin",
      "outputs": [],
      "stateMutability": "nonpayable",
      "type": "function"
    },
    {
      "inputs": [
        {
          "internalType": "address",
          "name": "to",
          "type": "address"
        },
        {
          "internalType": "uint256",
          "name": "tokenId",
          "type": "uint256"
        }
      ],
      "name": "approve",
      "outputs": [],
      "stateMutability": "nonpayable",
      "type": "function"
    },
    {
      "inputs": [
        {
          "internalType": "address",
          "name": "owner",
          "type": "address"
        }
      ],
      "name": "balanceOf",
      "outputs": [
        {
          "internalType": "uint256",
          "name": "",
          "type": "uint256"
        }
      ],
      "stateMutability": "view",
      "type": "function"
    },
    {
      "inputs": [
        {
          "internalType": "uint256[]",
          "name": "tokenIds",
          "type": "uint256[]"
        }
      ],
      "name": "batchBurn",
      "outputs": [],
      "stateMutability": "nonpayable",
      "type": "function"
    },
    {
      "inputs": [
        {
          "internalType": "address",
          "name": "to",
          "type": "address"
        },
        {
          "internalType": "uint256",
          "name": "numberOfTokens",
          "type": "uint256"
        }
      ],
      "name": "batchMint",
      "outputs": [],
      "stateMutability": "nonpayable",
      "type": "function"
    },
    {
      "inputs": [
        {
          "internalType": "address",
          "name": "from",
          "type": "address"
        },
        {
          "internalType": "address",
          "name": "to",
          "type": "address"
        },
        {
          "internalType": "uint256[]",
          "name": "tokenIds",
          "type": "uint256[]"
        }
      ],
      "name": "batchTransfer",
      "outputs": [],
      "stateMutability": "nonpayable",
      "type": "function"
    },
    {
      "inputs": [
        {
          "internalType": "uint256",
          "name": "tokenId",
          "type": "uint256"
        }
      ],
      "name": "getApproved",
      "outputs": [
        {
          "internalType": "address",
          "name": "",
          "type": "address"
        }
      ],
      "stateMutability": "view",
      "type": "function"
    },
    {
      "inputs": [],
      "name": "getNextTokenId",
      "outputs": [
        {
          "internalType": "uint256",
          "name": "",
          "type": "uint256"
        }
      ],
      "stateMutability": "view",
      "type": "function"
    },
    {
      "inputs": [
        {
          "internalType": "bytes32",
          "name": "role",
          "type": "bytes32"
        }
      ],
      "name": "getRoleAdmin",
      "outputs": [
        {
          "internalType": "bytes32",
          "name": "",
          "type": "bytes32"
        }
      ],
      "stateMutability": "view",
      "type": "function"
    },
    {
      "inputs": [
        {
          "internalType": "bytes32",
          "name": "role",
          "type": "bytes32"
        },
        {
          "internalType": "address",
          "name": "account",
          "type": "address"
        }
      ],
      "name": "grantRole",
      "outputs": [],
      "stateMutability": "nonpayable",
      "type": "function"
    },
    {
      "inputs": [
        {
          "internalType": "bytes32",
          "name": "role",
          "type": "bytes32"
        },
        {
          "internalType": "address",
          "name": "account",
          "type": "address"
        }
      ],
      "name": "hasRole",
      "outputs": [
        {
          "internalType": "bool",
          "name": "",
          "type": "bool"
        }
      ],
      "stateMutability": "view",
      "type": "function"
    },
    {
      "inputs": [
        {
          "internalType": "string",
          "name": "name",
          "type": "string"
        },
        {
          "internalType": "string",
          "name": "symbol",
          "type": "string"
        },
        {
          "internalType": "string",
          "name": "baseTokenURI",
          "type": "string"
        }
      ],
      "name": "initialize",
      "outputs": [],
      "stateMutability": "nonpayable",
      "type": "function"
    },
    {
      "inputs": [
        {
          "internalType": "address",
          "name": "account",
          "type": "address"
        }
      ],
      "name": "isAdmin",
      "outputs": [
        {
          "internalType": "bool",
          "name": "",
          "type": "bool"
        }
      ],
      "stateMutability": "view",
      "type": "function"
    },
    {
      "inputs": [
        {
          "internalType": "address",
          "name": "owner",
          "type": "address"
        },
        {
          "internalType": "address",
          "name": "operator",
          "type": "address"
        }
      ],
      "name": "isApprovedForAll",
      "outputs": [
        {
          "internalType": "bool",
          "name": "",
          "type": "bool"
        }
      ],
      "stateMutability": "view",
      "type": "function"
    },
    {
      "inputs": [],
      "name": "name",
      "outputs": [
        {
          "internalType": "string",
          "name": "",
          "type": "string"
        }
      ],
      "stateMutability": "view",
      "type": "function"
    },
    {
      "inputs": [
        {
          "internalType": "uint256",
          "name": "tokenId",
          "type": "uint256"
        }
      ],
      "name": "ownerOf",
      "outputs": [
        {
          "internalType": "address",
          "name": "",
          "type": "address"
        }
      ],
      "stateMutability": "view",
      "type": "function"
    },
    {
      "inputs": [],
      "name": "renounceAdmin",
      "outputs": [],
      "stateMutability": "nonpayable",
      "type": "function"
    },
    {
      "inputs": [
        {
          "internalType": "bytes32",
          "name": "role",
          "type": "bytes32"
        },
        {
          "internalType": "address",
          "name": "account",
          "type": "address"
        }
      ],
      "name": "renounceRole",
      "outputs": [],
      "stateMutability": "nonpayable",
      "type": "function"
    },
    {
      "inputs": [
        {
          "internalType": "bytes32",
          "name": "role",
          "type": "bytes32"
        },
        {
          "internalType": "address",
          "name": "account",
          "type": "address"
        }
      ],
      "name": "revokeRole",
      "outputs": [],
      "stateMutability": "nonpayable",
      "type": "function"
    },
    {
      "inputs": [
        {
          "internalType": "address",
          "name": "from",
          "type": "address"
        },
        {
          "internalType": "address",
          "name": "to",
          "type": "address"
        },
        {
          "internalType": "uint256",
          "name": "tokenId",
          "type": "uint256"
        }
      ],
      "name": "safeTransferFrom",
      "outputs": [],
      "stateMutability": "nonpayable",
      "type": "function"
    },
    {
      "inputs": [
        {
          "internalType": "address",
          "name": "from",
          "type": "address"
        },
        {
          "internalType": "address",
          "name": "to",
          "type": "address"
        },
        {
          "internalType": "uint256",
          "name": "tokenId",
          "type": "uint256"
        },
        {
          "internalType": "bytes",
          "name": "data",
          "type": "bytes"
        }
      ],
      "name": "safeTransferFrom",
      "outputs": [],
      "stateMutability": "nonpayable",
      "type": "function"
    },
    {
      "inputs": [
        {
          "internalType": "address",
          "name": "operator",
          "type": "address"
        },
        {
          "internalType": "bool",
          "name": "approved",
          "type": "bool"
        }
      ],
      "name": "setApprovalForAll",
      "outputs": [],
      "stateMutability": "nonpayable",
      "type": "function"
    },
    {
      "inputs": [
        {
          "internalType": "string",
          "name": "baseTokenURI",
          "type": "string"
        }
      ],
      "name": "setBaseURI",
      "outputs": [],
      "stateMutability": "nonpayable",
      "type": "function"
    },
    {
      "inputs": [
        {
          "internalType": "bytes4",
          "name": "interfaceId",
          "type": "bytes4"
        }
      ],
      "name": "supportsInterface",
      "outputs": [
        {
          "internalType": "bool",
          "name": "",
          "type": "bool"
        }
      ],
      "stateMutability": "view",
      "type": "function"
    },
    {
      "inputs": [],
      "name": "symbol",
      "outputs": [
        {
          "internalType": "string",
          "name": "",
          "type": "string"
        }
      ],
      "stateMutability": "view",
      "type": "function"
    },
    {
      "inputs": [
        {
          "internalType": "uint256",
          "name": "tokenId",
          "type": "uint256"
        }
      ],
      "name": "tokenURI",
      "outputs": [
        {
          "internalType": "string",
          "name": "",
          "type": "string"
        }
      ],
      "stateMutability": "view",
      "type": "function"
    },
    {
      "inputs": [
        {
          "internalType": "address",
          "name": "from",
          "type": "address"
        },
        {
          "internalType": "address",
          "name": "to",
          "type": "address"
        },
        {
          "internalType": "uint256",
          "name": "tokenId",
          "type": "uint256"
        }
      ],
      "name": "transferFrom",
      "outputs": [],
      "stateMutability": "nonpayable",
      "type": "function"
    }
  ],
  "bytecode": "0x608060405234801561001057600080fd5b5061218d806100206000396000f3fe608060405234801561001057600080fd5b50600436106101545760003560e01c806301ffc9a71461015957806306fdde0314610181578063081812fc14610196578063095ea7b3146101c157806323b872dd146101d6578063248a9ca3146101e957806324d7806c1461020a5780632f2ff15d1461021d5780633593cebc1461023057806336568abe1461024357806342842e0e1461025657806343508b051461026957806355f804b31461027c5780636352211e1461028f57806370480275146102a257806370a08231146102b55780638bad0c0a146102c857806391d14854146102d057806395d89b41146102e3578063a217fddf146102eb578063a22cb465146102f3578063a6487c5314610306578063b88d4fde14610319578063c87b56dd1461032c578063caa0f92a1461033f578063d547741f14610347578063dc8e92ea1461035a578063e985e9c51461036d575b600080fd5b61016c6101673660046117ea565b610380565b60405190151581526020015b60405180910390f35b6101896103ab565b6040516101789190611857565b6101a96101a436600461186a565b61043d565b6040516001600160a01b039091168152602001610178565b6101d46101cf36600461189f565b610464565b005b6101d46101e43660046118c9565b61057e565b6101fc6101f736600461186a565b6105af565b604051908152602001610178565b61016c610218366004611905565b6105c4565b6101d461022b366004611920565b6105d0565b6101d461023e366004611a11565b6105ec565b6101d4610251366004611920565b6106cd565b6101d46102643660046118c9565b61074b565b6101d461027736600461189f565b610766565b6101d461028a366004611ae5565b6107bf565b6101a961029d36600461186a565b6107f0565b6101d46102b0366004611905565b610824565b6101fc6102c3366004611905565b610857565b6101d46108dd565b61016c6102de366004611920565b6108ea565b610189610915565b6101fc600081565b6101d4610301366004611b19565b610924565b6101d4610314366004611b55565b61092f565b6101d4610327366004611bd2565b610a61565b61018961033a36600461186a565b610a93565b60c9546101fc565b6101d4610355366004611920565b610afa565b6101d4610368366004611c4d565b610b16565b61016c61037b366004611c81565b610bd3565b60006001600160e01b03198216637965db0b60e01b14806103a557506103a582610c01565b92915050565b6060606580546103ba90611cab565b80601f01602080910402602001604051908101604052809291908181526020018280546103e690611cab565b80156104335780601f1061040857610100808354040283529160200191610433565b820191906000526020600020905b81548152906001019060200180831161041657829003601f168201915b5050505050905090565b600061044882610c26565b506000908152606960205260409020546001600160a01b031690565b600061046f826107f0565b9050806001600160a01b0316836001600160a01b0316036104e15760405162461bcd60e51b815260206004820152602160248201527f4552433732313a20617070726f76616c20746f2063757272656e74206f776e656044820152603960f91b60648201526084015b60405180910390fd5b336001600160a01b03821614806104fd57506104fd8133610bd3565b61056f5760405162461bcd60e51b815260206004820152603d60248201527f4552433732313a20617070726f76652063616c6c6572206973206e6f7420746f60448201527f6b656e206f776e6572206f7220617070726f76656420666f7220616c6c00000060648201526084016104d8565b6105798383610c4b565b505050565b6105883382610cb9565b6105a45760405162461bcd60e51b81526004016104d890611ce5565b610579838383610d18565b60009081526097602052604090206001015490565b60006103a581836108ea565b6105d9826105af565b6105e281610e6a565b6105798383610e74565b60005b81518110156106c75761061c335b83838151811061060f5761060f611d32565b6020026020010151610cb9565b8061062b575061062b336105c4565b61069b5760405162461bcd60e51b815260206004820152603b60248201527f4552433732313a207472616e736665722063616c6c6572206973206e6f74206f60448201527a3bb732b9103737b91030b8383937bb32b2103737b91030b236b4b760291b60648201526084016104d8565b6106bf84848484815181106106b2576106b2611d32565b6020026020010151610d18565b6001016105ef565b50505050565b6001600160a01b038116331461073d5760405162461bcd60e51b815260206004820152602f60248201527f416363657373436f6e74726f6c3a2063616e206f6e6c792072656e6f756e636560448201526e103937b632b9903337b91039b2b63360891b60648201526084016104d8565b6107478282610efa565b5050565b61057983838360405180602001604052806000815250610a61565b61076f336105c4565b61078b5760405162461bcd60e51b81526004016104d890611d48565b60005b81811015610579576107a28360c954610f61565b60c980549060006107b283611d8c565b909155505060010161078e565b6107c8336105c4565b6107e45760405162461bcd60e51b81526004016104d890611d48565b60ca6107478282611df5565b6000806107fc8361105c565b90506001600160a01b0381166103a55760405162461bcd60e51b81526004016104d890611eb4565b61082d336105c4565b6108495760405162461bcd60e51b81526004016104d890611d48565b6108546000826105d0565b50565b60006001600160a01b0382166108c15760405162461bcd60e51b815260206004820152602960248201527f4552433732313a2061646472657373207a65726f206973206e6f7420612076616044820152683634b21037bbb732b960b91b60648201526084016104d8565b506001600160a01b031660009081526068602052604090205490565b6108e86000336106cd565b565b60009182526097602090815260408084206001600160a01b0393909316845291905290205460ff1690565b6060606680546103ba90611cab565b610747338383611077565b600054610100900460ff161580801561094f5750600054600160ff909116105b80610970575061095e30611141565b158015610970575060005460ff166001145b6109d35760405162461bcd60e51b815260206004820152602e60248201527f496e697469616c697a61626c653a20636f6e747261637420697320616c72656160448201526d191e481a5b9a5d1a585b1a5e995960921b60648201526084016104d8565b6000805460ff1916600117905580156109f6576000805461ff0019166101001790555b610a008484611150565b610a0933611181565b60ca610a158382611df5565b5080156106c7576000805461ff0019169055604051600181527f7f26b83ff96e1f2b6a682f133852f6798a09c465da95921460cefb38474024989060200160405180910390a150505050565b610a6b3383610cb9565b610a875760405162461bcd60e51b81526004016104d890611ce5565b6106c7848484846111bb565b6060610a9e82610c26565b6000610aa86111ee565b90506000815111610ac85760405180602001604052806000815250610af3565b80610ad2846111fd565b604051602001610ae3929190611ee6565b6040516020818303038152906040525b9392505050565b610b03826105af565b610b0c81610e6a565b6105798383610efa565b60005b815181101561074757610b2b336105fd565b80610b3a5750610b3a336105c4565b610ba95760405162461bcd60e51b815260206004820152603a60248201527f4552433732314275726e61626c653a2063616c6c6572206973206e6f74206f776044820152793732b9103737b91030b8383937bb32b2103737b91030b236b4b760311b60648201526084016104d8565b610bcb828281518110610bbe57610bbe611d32565b602002602001015161128f565b600101610b19565b6001600160a01b039182166000908152606a6020908152604080832093909416825291909152205460ff1690565b60006001600160e01b03198216637965db0b60e01b14806103a557506103a582611312565b610c2f81611362565b6108545760405162461bcd60e51b81526004016104d890611eb4565b600081815260696020526040902080546001600160a01b0319166001600160a01b0384169081179091558190610c80826107f0565b6001600160a01b03167f8c5be1e5ebec7d5bd14f71427d1e84f3dd0314c0f7b2291e5b200ac8c7c3b92560405160405180910390a45050565b600080610cc5836107f0565b9050806001600160a01b0316846001600160a01b03161480610cec5750610cec8185610bd3565b80610d105750836001600160a01b0316610d058461043d565b6001600160a01b0316145b949350505050565b826001600160a01b0316610d2b826107f0565b6001600160a01b031614610d515760405162461bcd60e51b81526004016104d890611f15565b6001600160a01b038216610db35760405162461bcd60e51b8152602060048201526024808201527f4552433732313a207472616e7366657220746f20746865207a65726f206164646044820152637265737360e01b60648201526084016104d8565b826001600160a01b0316610dc6826107f0565b6001600160a01b031614610dec5760405162461bcd60e51b81526004016104d890611f15565b600081815260696020908152604080832080546001600160a01b03199081169091556001600160a01b03878116808652606885528386208054600019019055908716808652838620805460010190558686526067909452828520805490921684179091559051849360008051602061213883398151915291a4505050565b610854813361137f565b610e7e82826108ea565b6107475760008281526097602090815260408083206001600160a01b03851684529091529020805460ff19166001179055610eb63390565b6001600160a01b0316816001600160a01b0316837f2f8788117e7eff1d82e926ec794901d17c78024a50270940304540a733656f0d60405160405180910390a45050565b610f0482826108ea565b156107475760008281526097602090815260408083206001600160a01b0385168085529252808320805460ff1916905551339285917ff6391f5c32d9c69d2a47ea670b442974b53935d1edc7fd64eb21e047a839171b9190a45050565b6001600160a01b038216610fb75760405162461bcd60e51b815260206004820181905260248201527f4552433732313a206d696e7420746f20746865207a65726f206164647265737360448201526064016104d8565b610fc081611362565b15610fdd5760405162461bcd60e51b81526004016104d890611f5a565b610fe681611362565b156110035760405162461bcd60e51b81526004016104d890611f5a565b6001600160a01b038216600081815260686020908152604080832080546001019055848352606790915280822080546001600160a01b031916841790555183929190600080516020612138833981519152908290a45050565b6000908152606760205260409020546001600160a01b031690565b816001600160a01b0316836001600160a01b0316036110d45760405162461bcd60e51b815260206004820152601960248201527822a9219b99189d1030b8383937bb32903a379031b0b63632b960391b60448201526064016104d8565b6001600160a01b038381166000818152606a6020908152604080832094871680845294825291829020805460ff191686151590811790915591519182527f17307eab39ab6107e8899845ad3d59bd9653f200f220920489ca2b5937696c31910160405180910390a3505050565b6001600160a01b03163b151590565b600054610100900460ff166111775760405162461bcd60e51b81526004016104d890611f90565b61074782826113d8565b600054610100900460ff166111a85760405162461bcd60e51b81526004016104d890611f90565b6111b0611418565b61085460008261143f565b6111c6848484610d18565b6111d284848484611449565b6106c75760405162461bcd60e51b81526004016104d890611fdb565b606060ca80546103ba90611cab565b6060600061120a83611551565b60010190506000816001600160401b038111156112295761122961194c565b6040519080825280601f01601f191660200182016040528015611253576020820181803683370190505b5090508181016020015b600019016f181899199a1a9b1b9c1cb0b131b232b360811b600a86061a8153600a850494508461125d57509392505050565b600061129a826107f0565b90506112a5826107f0565b600083815260696020908152604080832080546001600160a01b03199081169091556001600160a01b038516808552606884528285208054600019019055878552606790935281842080549091169055519293508492600080516020612138833981519152908390a45050565b60006001600160e01b031982166380ac58cd60e01b148061134357506001600160e01b03198216635b5e139f60e01b145b806103a557506301ffc9a760e01b6001600160e01b03198316146103a5565b60008061136e8361105c565b6001600160a01b0316141592915050565b61138982826108ea565b6107475761139681611627565b6113a1836020611639565b6040516020016113b292919061202d565b60408051601f198184030181529082905262461bcd60e51b82526104d891600401611857565b600054610100900460ff166113ff5760405162461bcd60e51b81526004016104d890611f90565b606561140b8382611df5565b5060666105798282611df5565b600054610100900460ff166108e85760405162461bcd60e51b81526004016104d890611f90565b6107478282610e74565b600061145d846001600160a01b0316611141565b1561154657604051630a85bd0160e11b81526001600160a01b0385169063150b7a029061149490339089908890889060040161209c565b6020604051808303816000875af19250505080156114cf575060408051601f3d908101601f191682019092526114cc918101906120d9565b60015b61152c573d8080156114fd576040519150601f19603f3d011682016040523d82523d6000602084013e611502565b606091505b5080516000036115245760405162461bcd60e51b81526004016104d890611fdb565b805181602001fd5b6001600160e01b031916630a85bd0160e11b149050610d10565b506001949350505050565b60008072184f03e93ff9f4daa797ed6e38ed64bf6a1f0160401b83106115905772184f03e93ff9f4daa797ed6e38ed64bf6a1f0160401b830492506040015b6904ee2d6d415b85acef8160201b83106115ba576904ee2d6d415b85acef8160201b830492506020015b662386f26fc1000083106115d857662386f26fc10000830492506010015b6305f5e10083106115f0576305f5e100830492506008015b612710831061160457612710830492506004015b60648310611616576064830492506002015b600a83106103a55760010192915050565b60606103a56001600160a01b03831660145b606060006116488360026120f6565b61165390600261210d565b6001600160401b0381111561166a5761166a61194c565b6040519080825280601f01601f191660200182016040528015611694576020820181803683370190505b509050600360fc1b816000815181106116af576116af611d32565b60200101906001600160f81b031916908160001a905350600f60fb1b816001815181106116de576116de611d32565b60200101906001600160f81b031916908160001a90535060006117028460026120f6565b61170d90600161210d565b90505b6001811115611785576f181899199a1a9b1b9c1cb0b131b232b360811b85600f166010811061174157611741611d32565b1a60f81b82828151811061175757611757611d32565b60200101906001600160f81b031916908160001a90535060049490941c9361177e81612120565b9050611710565b508315610af35760405162461bcd60e51b815260206004820181905260248201527f537472696e67733a20686578206c656e67746820696e73756666696369656e7460448201526064016104d8565b6001600160e01b03198116811461085457600080fd5b6000602082840312156117fc57600080fd5b8135610af3816117d4565b60005b8381101561182257818101518382015260200161180a565b50506000910152565b60008151808452611843816020860160208601611807565b601f01601f19169290920160200192915050565b602081526000610af3602083018461182b565b60006020828403121561187c57600080fd5b5035919050565b80356001600160a01b038116811461189a57600080fd5b919050565b600080604083850312156118b257600080fd5b6118bb83611883565b946020939093013593505050565b6000806000606084860312156118de57600080fd5b6118e784611883565b92506118f560208501611883565b9150604084013590509250925092565b60006020828403121561191757600080fd5b610af382611883565b6000806040838503121561193357600080fd5b8235915061194360208401611883565b90509250929050565b634e487b7160e01b600052604160045260246000fd5b604051601f8201601f191681016001600160401b038111828210171561198a5761198a61194c565b604052919050565b600082601f8301126119a357600080fd5b813560206001600160401b038211156119be576119be61194c565b8160051b6119cd828201611962565b92835284810182019282810190878511156119e757600080fd5b83870192505b84831015611a06578235825291830191908301906119ed565b979650505050505050565b600080600060608486031215611a2657600080fd5b611a2f84611883565b9250611a3d60208501611883565b915060408401356001600160401b03811115611a5857600080fd5b611a6486828701611992565b9150509250925092565b60006001600160401b03831115611a8757611a8761194c565b611a9a601f8401601f1916602001611962565b9050828152838383011115611aae57600080fd5b828260208301376000602084830101529392505050565b600082601f830112611ad657600080fd5b610af383833560208501611a6e565b600060208284031215611af757600080fd5b81356001600160401b03811115611b0d57600080fd5b610d1084828501611ac5565b60008060408385031215611b2c57600080fd5b611b3583611883565b915060208301358015158114611b4a57600080fd5b809150509250929050565b600080600060608486031215611b6a57600080fd5b83356001600160401b0380821115611b8157600080fd5b611b8d87838801611ac5565b94506020860135915080821115611ba357600080fd5b611baf87838801611ac5565b93506040860135915080821115611bc557600080fd5b50611a6486828701611ac5565b60008060008060808587031215611be857600080fd5b611bf185611883565b9350611bff60208601611883565b92506040850135915060608501356001600160401b03811115611c2157600080fd5b8501601f81018713611c3257600080fd5b611c4187823560208401611a6e565b91505092959194509250565b600060208284031215611c5f57600080fd5b81356001600160401b03811115611c7557600080fd5b610d1084828501611992565b60008060408385031215611c9457600080fd5b611c9d83611883565b915061194360208401611883565b600181811c90821680611cbf57607f821691505b602082108103611cdf57634e487b7160e01b600052602260045260246000fd5b50919050565b6020808252602d908201527f4552433732313a2063616c6c6572206973206e6f7420746f6b656e206f776e6560408201526c1c881bdc88185c1c1c9bdd9959609a1b606082015260800190565b634e487b7160e01b600052603260045260246000fd5b6020808252601490820152735265737472696374656420746f2061646d696e7360601b604082015260600190565b634e487b7160e01b600052601160045260246000fd5b600060018201611d9e57611d9e611d76565b5060010190565b601f821115610579576000816000526020600020601f850160051c81016020861015611dce5750805b601f850160051c820191505b81811015611ded57828155600101611dda565b505050505050565b81516001600160401b03811115611e0e57611e0e61194c565b611e2281611e1c8454611cab565b84611da5565b602080601f831160018114611e575760008415611e3f5750858301515b600019600386901b1c1916600185901b178555611ded565b600085815260208120601f198616915b82811015611e8657888601518255948401946001909101908401611e67565b5085821015611ea45787850151600019600388901b60f8161c191681555b5050505050600190811b01905550565b602080825260189082015277115490cdcc8c4e881a5b9d985b1a59081d1bdad95b88125160421b604082015260600190565b60008351611ef8818460208801611807565b835190830190611f0c818360208801611807565b01949350505050565b60208082526025908201527f4552433732313a207472616e736665722066726f6d20696e636f72726563742060408201526437bbb732b960d91b606082015260800190565b6020808252601c908201527b115490cdcc8c4e881d1bdad95b88185b1c9958591e481b5a5b9d195960221b604082015260600190565b6020808252602b908201527f496e697469616c697a61626c653a20636f6e7472616374206973206e6f74206960408201526a6e697469616c697a696e6760a81b606082015260800190565b60208082526032908201527f4552433732313a207472616e7366657220746f206e6f6e20455243373231526560408201527131b2b4bb32b91034b6b83632b6b2b73a32b960711b606082015260800190565b76020b1b1b2b9b9a1b7b73a3937b61d1030b1b1b7bab73a1604d1b81526000835161205f816017850160208801611807565b7001034b99036b4b9b9b4b733903937b6329607d1b6017918401918201528351612090816028840160208801611807565b01602801949350505050565b6001600160a01b03858116825284166020820152604081018390526080606082018190526000906120cf9083018461182b565b9695505050505050565b6000602082840312156120eb57600080fd5b8151610af3816117d4565b80820281158282048414176103a5576103a5611d76565b808201808211156103a5576103a5611d76565b60008161212f5761212f611d76565b50600019019056feddf252ad1be2c89b69c2b068fc378daa952ba7f163c4a11628f55a4df523b3efa264697066735822122045dce433a6bf489c64124139215ec8a826324e08a17ca18d420ee48119f1375264736f6c63430008180033",
  "linkReferences": {},
  "deployedLinkReferences": {}
}